01REMESSA01COBRANCA       45430981859601300398INTELNET SERVICO DE MULTIMIDIA033SANTANDER      2811220000000000000000                                                                                                                                                                                                                                                                                   000000001
9000172000000000000000000000000000000000000000000000000000000000000000000000000000000000000000000000000000000000000000000000000000000000000000000000000000000000000000000000000000000000000000000000000000000000000000000000000000000000000000000000000000000000000000000000000000000000000000000000000000000000000000000000000000000000000000000000000000000000000000000000000000000000000000000000000000000172900017200000000000000000000000000000000000000000000000000000000000000000000000000000000000000000000000000000000000000000000000000000000000000000000000000000000000000000000000000000000000000000000000000000000000000000000000000000000000000000000000000000000000000000000000000000000000000000000000000000000000000000000000000000000000000000000000000000000000000000000000000000000000000000000000000000017290001720000000000000000000000000000000000000000000000000000000000000000000000000000000000000000000000000000000000000000000000000000000000000000000000000000000000000000000000000000000000000000000000000000000000000000000000000000000000000000000000000000000000000000000000000000000000000000000000000000000000000000000000000000000000000000000000000000000000000000000000000000000000000000000000000000001721020769242500015845430981859601300398000000000000000000037132203713229000000 40200000000000000000    000000502000001018810112200000000060000330000001N251022000000000000000201011220000000000000000000000000000000000000000100006365061420JOSELITO PAIXAO DIAS                    RUA 8 DE DEZEMBRO,80                    ANTONIO PEIX59215000NOVA CRUZ      RN                               I42      00 000005
90001720000000006000000000000000000000000000000000000000000000000000000000000000000000000000000000000000000000000000000000000000000000000000000000000000000000000000000000000000000000000000000000000000000000000000000000000000000000000000000000000000000000000000000000000000000000000000000000000000000000000000000000000000000000000000000000000000000000000000000000000000000000000000000000000000000001721020769242500015845430981859601300398000000000000000000037201103720110000000 40200000000000000000    000000502000001101410112200000000026670330000001N251022000000000000000091011220000000000000000000000000000000000000000100070757781454RAIANA TUANA DA PAIXAO                  RUA VEREADOR JOSE ABILIO DA SILVA,251   S           59215000NOVA CRUZ      RN                               I42      00 000006
90001720000000008667000000000000000000000000000000000000000000000000000000000000000000000000000000000000000000000000000000000000000000000000000000000000000000000000000000000000000000000000000000000000000000000000000000000000000000000000000000000000000000000000000000000000000000000000000000000000000000000000000000000000000000000000000000000000000000000000000000000000000000000000000000000000000001721020769242500015845430981859601300398000000000000000000032566403256642000000 40200000000000000000    000000502000000409910112100000000060000330000001N251021000000000000000201011210000000000000000000000000000000000000000100002742932429JOSEFA JERONIMO DA SILVA                RUA JOACIR MARTINS DE LIMA,398          SAO JUDA    59215000NOVA CRUZ      RN                               I42      00 000007
90001720000000014667000000000000000000000000000000000000000000000000000000000000000000000000000000000000000000000000000000000000000000000000000000000000000000000000000000000000000000000000000000000000000000000000000000000000000000000000000000000000000000000000000000000000000000000000000000000000000000000000000000000000000000000000000000000000000000000000000000000000000000000000000000000000000001721020769242500015845430981859601300398000000000000000000037001403700143000000 40200000000000000000    000000502000000659720112200000000060000330000001N251022000000000000000202011220000000000000000000000000000000000000000100070271193409DIEGO GOMES DA SILVA                    RUA JOSE BONIFACIO,122                  SAO SEBASTIA59215000NOVA CRUZ      RN                               I42      00 000008
90001720000000020667000000000000000000000000000000000000000000000000000000000000000000000000000000000000000000000000000000000000000000000000000000000000000000000000000000000000000000000000000000000000000000000000000000000000000000000000000000000000000000000000000000000000000000000000000000000000000000000000000000000000000000000000000000000000000000000000000000000000000000000000000000000000000001721020769242500015845430981859601300398000000000000000000037133603713369000000 40200000000000000000    000000502000001020920112200000000050000330000001N251022000000000000000172011220000000000000000000000000000000000000000100018839738487MARIA ELMA DE SOUZA FERNANDES           ODILON SEVERINO DA CUNHA,181            CIDADE DO   59215000NOVA CRUZ      RN                               I42      00 000009
90001720000000025667000000000000000000000000000000000000000000000000000000000000000000000000000000000000000000000000000000000000000000000000000000000000000000000000000000000000000000000000000000000000000000000000000000000000000000000000000000000000000000000000000000000000000000000000000000000000000000000000000000000000000000000000000000000000000000000000000000000000000000000000000000000000000001721020769242500015845430981859601300398000000000000000000036921503692159000000 40200000000000000000    000000502000000377315112200000000050000330000001N251022000000000000000171511220000000000000000000000000000000000000000100004910485481JOSE COSME BERNARDO                     RUA PREFEITO SEVERINO AUGUSTO DE MORAIS             59215000NOVA CRUZ      RN                               I42      00 000010
90001720000000030667000000000000000000000000000000000000000000000000000000000000000000000000000000000000000000000000000000000000000000000000000000000000000000000000000000000000000000000000000000000000000000000000000000000000000000000000000000000000000000000000000000000000000000000000000000000000000000000000000000000000000000000000000000000000000000000000000000000000000000000000000000000000000001721020769242500015845430981859601300398000000000000000000037201403720144000000 40200000000000000000    000000502000000969026112200000000050000330000001N251022000000000000000172611220000000000000000000000000000000000000000100002777264414ANTONIO BEZERRA DE FONTES               RUA JOSE SOARES DE SENA,55              FREI DAMIAO 59215000NOVA CRUZ      RN                               I42      00 000011
90001720000000035667000000000000000000000000000000000000000000000000000000000000000000000000000000000000000000000000000000000000000000000000000000000000000000000000000000000000000000000000000000000000000000000000000000000000000000000000000000000000000000000000000000000000000000000000000000000000000000000000000000000000000000000000000000000000000000000000000000000000000000000000000000000000000001721020769242500015845430981859601300398000000000000000000037079303707938000000 40200000000000000000    000000502000000900810112200000000060000330000001N251022000000000000000201011220000000000000000000000000000000000000000100070537339477VANESSA RAFAELA DE LIMA MEDEIROS        RUA EURICO SILVEIRA BORGES,114          CIDADE D    59215000NOVA CRUZ      RN                               I42      00 000012
90001720000000041667000000000000000000000000000000000000000000000000000000000000000000000000000000000000000000000000000000000000000000000000000000000000000000000000000000000000000000000000000000000000000000000000000000000000000000000000000000000000000000000000000000000000000000000000000000000000000000000000000000000000000000000000000000000000000000000000000000000000000000000000000000000000000001721020769242500015845430981859601300398000000000000000000036845503684555000000 40200000000000000000    000000502000000018320112200000000060000330000001N251022000000000000000202011220000000000000000000000000000000000000000100049070487420FRANCISCO DE ASSIS DA COSTA             TENENTE JOSE DE FREITAS,96              FREI DAMIAO 59215000NOVA CRUZ      RN                               I42      00 000013
90001720000000047667000000000000000000000000000000000000000000000000000000000000000000000000000000000000000000000000000000000000000000000000000000000000000000000000000000000000000000000000000000000000000000000000000000000000000000000000000000000000000000000000000000000000000000000000000000000000000000000000000000000000000000000000000000000000000000000000000000000000000000000000000000000000000001721020769242500015845430981859601300398000000000000000000037104403710440000000 40200000000000000000    000000502000000958810112200000000050000330000001N251022000000000000000171011220000000000000000000000000000000000000000100071659587700JOAO BATISTA DO NASCIMENTO              RUA SENADOR GEORGINO AVELINO,604        SAO SE      59215000NOVA CRUZ      RN                               I42      00 000014
90001720000000052667000000000000000000000000000000000000000000000000000000000000000000000000000000000000000000000000000000000000000000000000000000000000000000000000000000000000000000000000000000000000000000000000000000000000000000000000000000000000000000000000000000000000000000000000000000000000000000000000000000000000000000000000000000000000000000000000000000000000000000000000000000000000000001721020769242500015845430981859601300398000000000000000000037476103747611000000 40200000000000000000    000000502000000954710122200000000050000330000001N251122000000000000000171012220000000000000000000000000000000000000000100005344784414JOSE EDUARDO LIMA DE FREITAS            RUA AVELINO PEREIRA DA SILVA,215        SANTA       59215000NOVA CRUZ      RN                               I42      00 000015
90001720000000057667000000000000000000000000000000000000000000000000000000000000000000000000000000000000000000000000000000000000000000000000000000000000000000000000000000000000000000000000000000000000000000000000000000000000000000000000000000000000000000000000000000000000000000000000000000000000000000000000000000000000000000000000000000000000000000000000000000000000000000000000000000000000000001721020769242500015845430981859601300398000000000000000000037002903700291000000 40200000000000000000    000000502000000664120112200000000060000330000001N251022000000000000000202011220000000000000000000000000000000000000000100077887999472PATRICIA FREITAS DA SILVA               RUA OITO DE DEZEMBRO,211                ANTONIO PEIX59215000NOVA CRUZ      RN                               I42      00 000016
90001720000000063667000000000000000000000000000000000000000000000000000000000000000000000000000000000000000000000000000000000000000000000000000000000000000000000000000000000000000000000000000000000000000000000000000000000000000000000000000000000000000000000000000000000000000000000000000000000000000000000000000000000000000000000000000000000000000000000000000000000000000000000000000000000000000001721020769242500015845430981859601300398000000000000000000037162903716295000000 40200000000000000000    000000502000001070520112200000000060000330000001N251022000000000000000202011220000000000000000000000000000000000000000100070411170490ANIELE MARIANO DA SILVA COSTA           RUA VEREADOR JOSE ABILIO DA SILVA,144   V           59215000NOVA CRUZ      RN                               I42      00 000017
90001720000000069667000000000000000000000000000000000000000000000000000000000000000000000000000000000000000000000000000000000000000000000000000000000000000000000000000000000000000000000000000000000000000000000000000000000000000000000000000000000000000000000000000000000000000000000000000000000000000000000000000000000000000000000000000000000000000000000000000000000000000000000000000000000000000001721020769242500015845430981859601300398000000000000000000036942203694224000000 40200000000000000000    000000502000000458625112200000000060000330000001N251022000000000000000202511220000000000000000000000000000000000000000100053492994768GERALDO DA SILVA BORGES                 JUVEMAR DA SILVEIRA BORGES,264          ALTO DAS    59215000NOVA CRUZ      RN                               I42      00 000018
90001720000000075667000000000000000000000000000000000000000000000000000000000000000000000000000000000000000000000000000000000000000000000000000000000000000000000000000000000000000000000000000000000000000000000000000000000000000000000000000000000000000000000000000000000000000000000000000000000000000000000000000000000000000000000000000000000000000000000000000000000000000000000000000000000000000001721020769242500015845430981859601300398000000000000000000037048703704874000000 40200000000000000000    000000502000000823620112200000000060000330000001N251022000000000000000202011220000000000000000000000000000000000000000100011357652437ALEX BRUNO DA SILVA MORAIS              RUA NESTOR MARINHO,317                  CENTRO      59215000NOVA CRUZ      RN                               I42      00 000019
90001720000000081667000000000000000000000000000000000000000000000000000000000000000000000000000000000000000000000000000000000000000000000000000000000000000000000000000000000000000000000000000000000000000000000000000000000000000000000000000000000000000000000000000000000000000000000000000000000000000000000000000000000000000000000000000000000000000000000000000000000000000000000000000000000000000001721020769242500015845430981859601300398000000000000000000036961703696170000000 40200000000000000000    000000502000000521626112200000000050000330000001N251022000000000000000172611220000000000000000000000000000000000000000100005309075429EDINALVA PEDRO DE LIMA                  RUA AVELINO PEREIRA DA SILVA,38         ANTONIO     59215000NOVA CRUZ      RN                               I42      00 000020
90001720000000086667000000000000000000000000000000000000000000000000000000000000000000000000000000000000000000000000000000000000000000000000000000000000000000000000000000000000000000000000000000000000000000000000000000000000000000000000000000000000000000000000000000000000000000000000000000000000000000000000000000000000000000000000000000000000000000000000000000000000000000000000000000000000000001721020769242500015845430981859601300398000000000000000000037350003735001000000 40200000000000000000    000000502000000570810122200000000050000330000001N251122000000000000000171012220000000000000000000000000000000000000000100006019261450ANA PAULA DE LIMA SOUZA                 RUA AVELINO PEREIRA DA SILVA,148        ANTONI      59215000NOVA CRUZ      RN                               I42      00 000021
90001720000000091667000000000000000000000000000000000000000000000000000000000000000000000000000000000000000000000000000000000000000000000000000000000000000000000000000000000000000000000000000000000000000000000000000000000000000000000000000000000000000000000000000000000000000000000000000000000000000000000000000000000000000000000000000000000000000000000000000000000000000000000000000000000000000001721020769242500015845430981859601300398000000000000000000037157703715779000000 40200000000000000000    000000502000001062320112200000000048000330000001N251022000000000000000162011220000000000000000000000000000000000000000100009223759412JANETE BATISTA BARBOSA                  SITIO MACACOS,00                        ZONA RURAL  59215000NOVA CRUZ      RN                               I42      00 000022
90001720000000096467000000000000000000000000000000000000000000000000000000000000000000000000000000000000000000000000000000000000000000000000000000000000000000000000000000000000000000000000000000000000000000000000000000000000000000000000000000000000000000000000000000000000000000000000000000000000000000000000000000000000000000000000000000000000000000000000000000000000000000000000000000000000000001721020769242500015845430981859601300398000000000000000000036913903691390000000 40200000000000000000    000000502000000344928112200000000050000330000001N251022000000000000000172811220000000000000000000000000000000000000000100015521796487JOSE GILBERTO FLORIPE DE LIMA           MARIA LEDA MOUSINHO,538                 ALTO DAS FLO59215000NOVA CRUZ      RN                               I42      00 000023
90001720000000101467000000000000000000000000000000000000000000000000000000000000000000000000000000000000000000000000000000000000000000000000000000000000000000000000000000000000000000000000000000000000000000000000000000000000000000000000000000000000000000000000000000000000000000000000000000000000000000000000000000000000000000000000000000000000000000000000000000000000000000000000000000000000000001721020769242500015845430981859601300398000000000000000000037443503744353000000 40200000000000000000    000000502000000876205122200000000050000330000001N251122000000000000000170512220000000000000000000000000000000000000000100070836809491DAMIAO ALEXANDRE MARINHO                RUA JOAO GOUVEIA DA SILVA,471           ALTO DAS    59215000NOVA CRUZ      RN                               I42      00 000024
90001720000000106467000000000000000000000000000000000000000000000000000000000000000000000000000000000000000000000000000000000000000000000000000000000000000000000000000000000000000000000000000000000000000000000000000000000000000000000000000000000000000000000000000000000000000000000000000000000000000000000000000000000000000000000000000000000000000000000000000000000000000000000000000000000000000001721020769242500015845430981859601300398000000000000000000037196903719693000000 40200000000000000000    000000502000000943105112200000000050000330000001N251022000000000000000170511220000000000000000000000000000000000000000100010766059405JUNIOR AFONSO DE LIMA                   RUA INVERNO,03                          VISTA DO SOL59215000NOVA CRUZ      RN                               I42      00 000025
90001720000000111467000000000000000000000000000000000000000000000000000000000000000000000000000000000000000000000000000000000000000000000000000000000000000000000000000000000000000000000000000000000000000000000000000000000000000000000000000000000000000000000000000000000000000000000000000000000000000000000000000000000000000000000000000000000000000000000000000000000000000000000000000000000000000001721020769242500015845430981859601300398000000000000000000037149003714900000000 40200000000000000000    000000502000001049020112200000000060000330000001N251022000000000000000202011220000000000000000000000000000000000000000100008293750405FRANCISCO DE ASSIS DE OLIVEIRA          RUA CARLOS ADSON BARBOSA,90                         59215000NOVA CRUZ      RN                               I42      00 000026
90001720000000117467000000000000000000000000000000000000000000000000000000000000000000000000000000000000000000000000000000000000000000000000000000000000000000000000000000000000000000000000000000000000000000000000000000000000000000000000000000000000000000000000000000000000000000000000000000000000000000000000000000000000000000000000000000000000000000000000000000000000000000000000000000000000000001721020769242500015845430981859601300398000000000000000000037196203719626000000 40200000000000000000    000000502000000915005112200000000055000330000001N251022000000000000000180511220000000000000000000000000000000000000000100007880969403DOMICIO FELINDO DA COSTA                SITIO FAZENDA LAPA,31                   ZONA RURAL  59215000NOVA CRUZ      RN                               I42      00 000027
90001720000000122967000000000000000000000000000000000000000000000000000000000000000000000000000000000000000000000000000000000000000000000000000000000000000000000000000000000000000000000000000000000000000000000000000000000000000000000000000000000000000000000000000000000000000000000000000000000000000000000000000000000000000000000000000000000000000000000000000000000000000000000000000000000000000001721020769242500015845430981859601300398000000000000000000036989603698963000000 40200000000000000000    000000502000000622110112200000000060000330000001N251022000000000000000201011220000000000000000000000000000000000000000100006595734400ANA MARIA BRAZ DE OLIVEIRA              RUA VEREADOR JOSE ABILIO DA SILVA,121   S           59215000NOVA CRUZ      RN                               I42      00 000028
90001720000000128967000000000000000000000000000000000000000000000000000000000000000000000000000000000000000000000000000000000000000000000000000000000000000000000000000000000000000000000000000000000000000000000000000000000000000000000000000000000000000000000000000000000000000000000000000000000000000000000000000000000000000000000000000000000000000000000000000000000000000000000000000000000000000001721020769242500015845430981859601300398000000000000000000037022603702260000000 40200000000000000000    000000502000000733420112200000000050000330000001N251022000000000000000172011220000000000000000000000000000000000000000100006561658477PAULA FELIX DA SILVA MEDEIROS           RUA PANTALEAO JUSTINO DE LIMA,21        PLANAL      59215000NOVA CRUZ      RN                               I42      00 000029
90001720000000133967000000000000000000000000000000000000000000000000000000000000000000000000000000000000000000000000000000000000000000000000000000000000000000000000000000000000000000000000000000000000000000000000000000000000000000000000000000000000000000000000000000000000000000000000000000000000000000000000000000000000000000000000000000000000000000000000000000000000000000000000000000000000000001721020769242500015845430981859601300398000000000000000000036919603691969000000 40200000000000000000    000000502000000370525112200000000050000330000001N251022000000000000000172511220000000000000000000000000000000000000000100001272777499LIENE CRISTIANE RIBEIRO                 VEREADOR PEDRO TAVARES SOBRINHO,322     FRE         59215000NOVA CRUZ      RN                               I42      00 000030
90001720000000138967000000000000000000000000000000000000000000000000000000000000000000000000000000000000000000000000000000000000000000000000000000000000000000000000000000000000000000000000000000000000000000000000000000000000000000000000000000000000000000000000000000000000000000000000000000000000000000000000000000000000000000000000000000000000000000000000000000000000000000000000000000000000000001721020769242500015845430981859601300398000000000000000000037277703727777000000 40200000000000000000    000000502000000284405122200000000050000330000001N251122000000000000000170512220000000000000000000000000000000000000000100001307667473LEIDJANE NADJA RIBEIRO BARBOSA          VEREADOR RENATO JOSE DE MELO,164        PLANAL      59215000NOVA CRUZ      RN                               I42      00 000031
90001720000000143967000000000000000000000000000000000000000000000000000000000000000000000000000000000000000000000000000000000000000000000000000000000000000000000000000000000000000000000000000000000000000000000000000000000000000000000000000000000000000000000000000000000000000000000000000000000000000000000000000000000000000000000000000000000000000000000000000000000000000000000000000000000000000001721020769242500015845430981859601300398000000000000000000037181203718123000000 40200000000000000000    000000502000001095320112200000000050000330000001N251022000000000000000172011220000000000000000000000000000000000000000100071359375465ROSINALDO MARQUES PEREIRA JUNIOR        RUA PROFESSOR JOSEPIO DE ALMEIDA DUARTE             59215000NOVA CRUZ      RN                               I42      00 000032
90001720000000148967000000000000000000000000000000000000000000000000000000000000000000000000000000000000000000000000000000000000000000000000000000000000000000000000000000000000000000000000000000000000000000000000000000000000000000000000000000000000000000000000000000000000000000000000000000000000000000000000000000000000000000000000000000000000000000000000000000000000000000000000000000000000000001721020769242500015845430981859601300398000000000000000000037204403720446000000 40200000000000000000    000000502000001056827102200000000055000330000001N261022000000000000000182710220000000000000000000000000000000000000000100070630939403CAIO VINICIUS MOREIRA MENEZES           RUA PROFESSORA TEREZINHA BATISTA,11     CEN         59215000NOVA CRUZ      RN                               I42      00 000033
90001720000000154467000000000000000000000000000000000000000000000000000000000000000000000000000000000000000000000000000000000000000000000000000000000000000000000000000000000000000000000000000000000000000000000000000000000000000000000000000000000000000000000000000000000000000000000000000000000000000000000000000000000000000000000000000000000000000000000000000000000000000000000000000000000000000001721020769242500015845430981859601300398000000000000000000037188703718875000000 40200000000000000000    000000502000000465820112200000000060000330000001N251022000000000000000202011220000000000000000000000000000000000000000100040667278400GERALDO FERREIRA DA COSTA               RUA PROFESSOR LEONOR ROCHA,102          SALGADO     59215000NOVA CRUZ      RN                               I42      00 000034
90001720000000160467000000000000000000000000000000000000000000000000000000000000000000000000000000000000000000000000000000000000000000000000000000000000000000000000000000000000000000000000000000000000000000000000000000000000000000000000000000000000000000000000000000000000000000000000000000000000000000000000000000000000000000000000000000000000000000000000000000000000000000000000000000000000000001721020769242500015845430981859601300398000000000000000000036899003689905000000 40200000000000000000    000000502000000273620112200000000045000330000001N251022000000000000000152011220000000000000000000000000000000000000000100070174649401MARCELO FAUSTINO DA SILVA               RUA DOUTOR ALCEBIADES CARVALHO ROCHA,25             59215000NOVA CRUZ      RN                               I42      00 000035
90001720000000164967000000000000000000000000000000000000000000000000000000000000000000000000000000000000000000000000000000000000000000000000000000000000000000000000000000000000000000000000000000000000000000000000000000000000000000000000000000000000000000000000000000000000000000000000000000000000000000000000000000000000000000000000000000000000000000000000000000000000000000000000000000000000000001721020769242500015845430981859601300398000000000000000000036990703699072000000 40200000000000000000    000000502000000625920112200000000050000330000001N251022000000000000000172011220000000000000000000000000000000000000000100039226629862LIDIANA DA SILVA DE FRANCA BATISTA      RUA SEVERINO MARQUES MOREIRA,0          SAO JUDA    59215000NOVA CRUZ      RN                               I42      00 000036
90001720000000169967000000000000000000000000000000000000000000000000000000000000000000000000000000000000000000000000000000000000000000000000000000000000000000000000000000000000000000000000000000000000000000000000000000000000000000000000000000000000000000000000000000000000000000000000000000000000000000000000000000000000000000000000000000000000000000000000000000000000000000000000000000000000000001721020769242500015845430981859601300398000000000000000000036958803695883000000 40200000000000000000    000000502000000512420112200000000050000330000001N251022000000000000000172011220000000000000000000000000000000000000000100070332539407MARIA DA PIEDADE PATRICIO DE OLIVEIRA   RUA MARIA FELISMINA DA CONCEICAO,433    PL          59215000NOVA CRUZ      RN                               I42      00 000037
90001720000000174967000000000000000000000000000000000000000000000000000000000000000000000000000000000000000000000000000000000000000000000000000000000000000000000000000000000000000000000000000000000000000000000000000000000000000000000000000000000000000000000000000000000000000000000000000000000000000000000000000000000000000000000000000000000000000000000000000000000000000000000000000000000000000001721020769242500015845430981859601300398000000000000000000036957403695743000000 40200000000000000000    000000502000000508110112200000000060000330000001N251022000000000000000201011220000000000000000000000000000000000000000100004953160401ELIAS COSME DOS SANTOS                  RUA OITO DE DEZEMBRO,98                 ANTONIO PEIX59215000NOVA CRUZ      RN                               I42      00 000038
90001720000000180967000000000000000000000000000000000000000000000000000000000000000000000000000000000000000000000000000000000000000000000000000000000000000000000000000000000000000000000000000000000000000000000000000000000000000000000000000000000000000000000000000000000000000000000000000000000000000000000000000000000000000000000000000000000000000000000000000000000000000000000000000000000000000001721020769242500015845430981859601300398000000000000000000036900803690083000000 40200000000000000000    000000502000000281626112200000000050000330000001N251022000000000000000172611220000000000000000000000000000000000000000100070235079499DANIEL SERAFIM DA COSTA                 RUA SENADOR GEORGINO AVELINO,430        SAO SE      59215000NOVA CRUZ      RN                               I42      00 000039
90001720000000185967000000000000000000000000000000000000000000000000000000000000000000000000000000000000000000000000000000000000000000000000000000000000000000000000000000000000000000000000000000000000000000000000000000000000000000000000000000000000000000000000000000000000000000000000000000000000000000000000000000000000000000000000000000000000000000000000000000000000000000000000000000000000000001721020769242500015845430981859601300398000000000000000000036903503690350000000 40200000000000000000    000000502000000291828112200000000060000330000001N251022000000000000000202811220000000000000000000000000000000000000000100085063983472SEVERINO DO RAMOS FIRMINO DA SILVA      RUA JOAO GOUVEIA DA SILVA,183           CENTRO      59215000NOVA CRUZ      RN                               I42      00 000040
90001720000000191967000000000000000000000000000000000000000000000000000000000000000000000000000000000000000000000000000000000000000000000000000000000000000000000000000000000000000000000000000000000000000000000000000000000000000000000000000000000000000000000000000000000000000000000000000000000000000000000000000000000000000000000000000000000000000000000000000000000000000000000000000000000000000001721020769242500015845430981859601300398000000000000000000037193003719308000000 40200000000000000000    000000502000000775505112200000000050000330000001N251022000000000000000170511220000000000000000000000000000000000000000100011280519401JAMILE INACIO DA SILVA                  RUA VEREADOR JOSE ABILIO DA SILVA,42    BE          59215000NOVA CRUZ      RN                               I42      00 000041
90001720000000196967000000000000000000000000000000000000000000000000000000000000000000000000000000000000000000000000000000000000000000000000000000000000000000000000000000000000000000000000000000000000000000000000000000000000000000000000000000000000000000000000000000000000000000000000000000000000000000000000000000000000000000000000000000000000000000000000000000000000000000000000000000000000000001721020769242500015845430981859601300398000000000000000000036988003698807000000 40200000000000000000    000000502000000617510112200000000050000330000001N251022000000000000000171011220000000000000000000000000000000000000000100005370607400CELIA MARIA DE LIMA                     RUA JOSE BONIFACIO,215                  SAO SEBASTIA59215000NOVA CRUZ      RN                               I42      00 000042
90001720000000201967000000000000000000000000000000000000000000000000000000000000000000000000000000000000000000000000000000000000000000000000000000000000000000000000000000000000000000000000000000000000000000000000000000000000000000000000000000000000000000000000000000000000000000000000000000000000000000000000000000000000000000000000000000000000000000000000000000000000000000000000000000000000000001721020769242500015845430981859601300398000000000000000000036989503698955000000 40200000000000000000    000000502000000621415112200000000050000330000001N251022000000000000000171511220000000000000000000000000000000000000000100008581327702ALEXANDRA DE OLIVEIRA FRANCO            RUA ANTONIO GALDINO DA COSTA,104        NOVA E      59215000NOVA CRUZ      RN                               I42      00 000043
90001720000000206967000000000000000000000000000000000000000000000000000000000000000000000000000000000000000000000000000000000000000000000000000000000000000000000000000000000000000000000000000000000000000000000000000000000000000000000000000000000000000000000000000000000000000000000000000000000000000000000000000000000000000000000000000000000000000000000000000000000000000000000000000000000000000001721020769242500015845430981859601300398000000000000000000037202203720225000000 40200000000000000000    000000502000000592105112200000000022000330000001N251022000000000000000070511220000000000000000000000000000000000000000100069551847415VERA LUCIA DE SOUZA                     RUA MARIA LEDA MOUSINHO,111                         59215000NOVA CRUZ      RN                               I42      00 000044
90001720000000209167000000000000000000000000000000000000000000000000000000000000000000000000000000000000000000000000000000000000000000000000000000000000000000000000000000000000000000000000000000000000000000000000000000000000000000000000000000000000000000000000000000000000000000000000000000000000000000000000000000000000000000000000000000000000000000000000000000000000000000000000000000000000000001721020769242500015845430981859601300398000000000000000000037185203718522000000 40200000000000000000    000000502000000198705112200000000050000330000001N251022000000000000000170511220000000000000000000000000000000000000000100085200115434LUCI CLEIDE MARQUES DA SILVA            RUA SANTO ANTONIO,96                    PORTAL      59215000NOVA CRUZ      RN                               I42      00 000045
90001720000000214167000000000000000000000000000000000000000000000000000000000000000000000000000000000000000000000000000000000000000000000000000000000000000000000000000000000000000000000000000000000000000000000000000000000000000000000000000000000000000000000000000000000000000000000000000000000000000000000000000000000000000000000000000000000000000000000000000000000000000000000000000000000000000001721020769242500015845430981859601300398000000000000000000037116003711609000000 40200000000000000000    000000502000000985715112200000000025000330000001N251022000000000000000081511220000000000000000000000000000000000000000100009500114445DIEGO DE LIMA DA SILVA                  RUA JOAO DA MATA,SN                     CAMPO NOVO  58254000LOGRADOURO     PB                               I42      00 000046
90001720000000216667000000000000000000000000000000000000000000000000000000000000000000000000000000000000000000000000000000000000000000000000000000000000000000000000000000000000000000000000000000000000000000000000000000000000000000000000000000000000000000000000000000000000000000000000000000000000000000000000000000000000000000000000000000000000000000000000000000000000000000000000000000000000000001721020769242500015845430981859601300398000000000000000000037255803725588000000 40200000000000000000    000000502000000164105122200000000050000330000001N251122000000000000000170512220000000000000000000000000000000000000000100022980458449AILTON FRANCISCO DE SANTANA             RUA SILVINO BEZERRA NETO,157            ALTO DAS F  59215000NOVA CRUZ      RN                               I42      00 000047
90001720000000221667000000000000000000000000000000000000000000000000000000000000000000000000000000000000000000000000000000000000000000000000000000000000000000000000000000000000000000000000000000000000000000000000000000000000000000000000000000000000000000000000000000000000000000000000000000000000000000000000000000000000000000000000000000000000000000000000000000000000000000000000000000000000000001721020769242500015845430981859601300398000000000000000000037138503713857000000 40200000000000000000    000000502000001029510112200000000033340330000001N251022000000000000000111011220000000000000000000000000000000000000000100070761640436RAYANE DA SILVA DOMINGOS                RUA SEVERINO AUGUSTO DE MORAIS,33       PLANA       59215000NOVA CRUZ      RN                               I42      00 000048
90001720000000225001000000000000000000000000000000000000000000000000000000000000000000000000000000000000000000000000000000000000000000000000000000000000000000000000000000000000000000000000000000000000000000000000000000000000000000000000000000000000000000000000000000000000000000000000000000000000000000000000000000000000000000000000000000000000000000000000000000000000000000000000000000000000000001721020769242500015845430981859601300398000000000000000000036910903691098000000 40200000000000000000    000000502000000330520112200000000050000330000001N251022000000000000000172011220000000000000000000000000000000000000000100096997192491CLAUDENOR DA SILVA                      RUA VEREADOR JOAO PIMENTA DE MELO,50    FR          59215000NOVA CRUZ      RN                               I42      00 000049
90001720000000230001000000000000000000000000000000000000000000000000000000000000000000000000000000000000000000000000000000000000000000000000000000000000000000000000000000000000000000000000000000000000000000000000000000000000000000000000000000000000000000000000000000000000000000000000000000000000000000000000000000000000000000000000000000000000000000000000000000000000000000000000000000000000000001721020769242500015845430981859601300398000000000000000000037261703726177000000 40200000000000000000    000000502000000204105122200000000050000330000001N251122000000000000000170512220000000000000000000000000000000000000000100075085895487IASSONARA MARQUES MANDU                 RUA DOUTOR PEDRO VELHO,118              CENTRO      59215000NOVA CRUZ      RN                               I42      00 000050
90001720000000235001000000000000000000000000000000000000000000000000000000000000000000000000000000000000000000000000000000000000000000000000000000000000000000000000000000000000000000000000000000000000000000000000000000000000000000000000000000000000000000000000000000000000000000000000000000000000000000000000000000000000000000000000000000000000000000000000000000000000000000000000000000000000000001721020769242500015845430981859601300398000000000000000000037172603717267000000 40200000000000000000    000000502000001084820112200000000060000330000001N251022000000000000000202011220000000000000000000000000000000000000000100009363216446KELLIANNY DA SILVA                      RUA JOSE COUTINHO DE OLIVEIRA FILHO,180             59215000NOVA CRUZ      RN                               I42      00 000051
90001720000000241001000000000000000000000000000000000000000000000000000000000000000000000000000000000000000000000000000000000000000000000000000000000000000000000000000000000000000000000000000000000000000000000000000000000000000000000000000000000000000000000000000000000000000000000000000000000000000000000000000000000000000000000000000000000000000000000000000000000000000000000000000000000000000001721020769242500015845430981859601300398000000000000000000037180403718042000000 40200000000000000000    000000502000001094520112200000000050000330000001N251022000000000000000172011220000000000000000000000000000000000000000100007766801450PETRYANNA FELIX SOARES                  RUA CARLOS PEREIRA MATOS,1193           FREI DAMI   59215000NOVA CRUZ      RN                               I42      00 000052
90001720000000246001000000000000000000000000000000000000000000000000000000000000000000000000000000000000000000000000000000000000000000000000000000000000000000000000000000000000000000000000000000000000000000000000000000000000000000000000000000000000000000000000000000000000000000000000000000000000000000000000000000000000000000000000000000000000000000000000000000000000000000000000000000000000000001721020769242500015845430981859601300398000000000000000000037551703755177000000 40200000000000000000    000000502000001094520122200000000060000330000001N251122000000000000000202012220000000000000000000000000000000000000000100007766801450PETRYANNA FELIX SOARES                  RUA CARLOS PEREIRA MATOS,1193           FREI DAMI   59215000NOVA CRUZ      RN                               I42      00 000053
9000172000000025200100000000000000000000000000000000000000000000000000000000000000000000000000000000000000000000000000000000000000000000000000000000000000000000000000000000000000000000000000000000000000000000000000000000000000000000000000000000000000000000000000000000000000000000000000000000000000000000000000000000000000000000000000000000000000000000000000000000000000000000000000000000000000000172900017200000002520010000000000000000000000000000000000000000000000000000000000000000000000000000000000000000000000000000000000000000000000000000000000000000000000000000000000000000000000000000000000000000000000000000000000000000000000000000000000000000000000000000000000000000000000000000000000000000000000000000000000000000000000000000000000000000000000000000000000000000000000000000000000000000017290001720000000252001000000000000000000000000000000000000000000000000000000000000000000000000000000000000000000000000000000000000000000000000000000000000000000000000000000000000000000000000000000000000000000000000000000000000000000000000000000000000000000000000000000000000000000000000000000000000000000000000000000000000000000000000000000000000000000000000000000000000000000000000000000000000000001721020769242500015845430981859601300398000000000000000000036965103696510000000 40200000000000000000    000000502000000535120112200000000050000330000001N251022000000000000000172011220000000000000000000000000000000000000000100006585318404IVANA MARIA DE CARVALHO                 RUA JOSE ALEXANDRE DA SILVA,26          NOVA ESP    59215000NOVA CRUZ      RN                               I42      00 000056
90001720000000257001000000000000000000000000000000000000000000000000000000000000000000000000000000000000000000000000000000000000000000000000000000000000000000000000000000000000000000000000000000000000000000000000000000000000000000000000000000000000000000000000000000000000000000000000000000000000000000000000000000000000000000000000000000000000000000000000000000000000000000000000000000000000000001721020769242500015845430981859601300398000000000000000000037195503719553000000 40200000000000000000    000000502000000886805112200000000050000330000001N251022000000000000000170511220000000000000000000000000000000000000000100001729287450CAMILA MARIA INACIO DO NASCIMENTO       RUA PROFESSOR MANOEL ELIAS DA SILVA,41              59215000NOVA CRUZ      RN                               I42      00 000057
90001720000000262001000000000000000000000000000000000000000000000000000000000000000000000000000000000000000000000000000000000000000000000000000000000000000000000000000000000000000000000000000000000000000000000000000000000000000000000000000000000000000000000000000000000000000000000000000000000000000000000000000000000000000000000000000000000000000000000000000000000000000000000000000000000000000001721020769242500015845430981859601300398000000000000000000036857603685764000000 40200000000000000000    000000502000000058010112200000000120000330000001N251022000000000000000401011220000000000000000000000000000000000000000100083700706472PAULO RICARDO GALVAO DANTAS             RUA JUVEMAR DA SILVEIRA BORGES,57       ALTO        59215000NOVA CRUZ      RN                               I42      00 000058
90001720000000274001000000000000000000000000000000000000000000000000000000000000000000000000000000000000000000000000000000000000000000000000000000000000000000000000000000000000000000000000000000000000000000000000000000000000000000000000000000000000000000000000000000000000000000000000000000000000000000000000000000000000000000000000000000000000000000000000000000000000000000000000000000000000000001721020769242500015845430981859601300398000000000000000000036899803689980000000 40200000000000000000    000000502000000275910112200000000070000330000001N251022000000000000000231011220000000000000000000000000000000000000000100001218591420LEANDRA DA SILVA PORCINO                RUA PROFESSOR JOSEPIO DE ALMEIDA,1021   C           59215000NOVA CRUZ      RN                               I42      00 000059
90001720000000281001000000000000000000000000000000000000000000000000000000000000000000000000000000000000000000000000000000000000000000000000000000000000000000000000000000000000000000000000000000000000000000000000000000000000000000000000000000000000000000000000000000000000000000000000000000000000000000000000000000000000000000000000000000000000000000000000000000000000000000000000000000000000000001721020769242500015845430981859601300398000000000000000000036997503699757000000 40200000000000000000    000000502000000646610112200000000060000330000001N251022000000000000000201011220000000000000000000000000000000000000000100009673675490DANIEL FERREIRA DE LIMA                 RUA VEREADOR JOSE ABILIO DA SILVA,53    BE          59215000NOVA CRUZ      RN                               I42      00 000060
90001720000000287001000000000000000000000000000000000000000000000000000000000000000000000000000000000000000000000000000000000000000000000000000000000000000000000000000000000000000000000000000000000000000000000000000000000000000000000000000000000000000000000000000000000000000000000000000000000000000000000000000000000000000000000000000000000000000000000000000000000000000000000000000000000000000001721020769242500015845430981859601300398000000000000000000036883603688364000000 40200000000000000000    000000502000000198826112200000000060000330000001N251022000000000000000202611220000000000000000000000000000000000000000100056716079491MARIA DE LOURDES MATIAS                 JOSE ALEXANDRINO DA SILVA,141           CIDADE DO   59215000NOVA CRUZ      RN                               I42      00 000061
90001720000000293001000000000000000000000000000000000000000000000000000000000000000000000000000000000000000000000000000000000000000000000000000000000000000000000000000000000000000000000000000000000000000000000000000000000000000000000000000000000000000000000000000000000000000000000000000000000000000000000000000000000000000000000000000000000000000000000000000000000000000000000000000000000000000001721020769242500015845430981859601300398000000000000000000037174803717488000000 40200000000000000000    000000502000001087720112200000000050000330000001N251022000000000000000172011220000000000000000000000000000000000000000100001778165460JOSENILDO DA SILVA DE LIMA              RUA JOACIR MARTINS DE LIMA,197          SAO JUDA    59215000NOVA CRUZ      RN                               I42      00 000062
90001720000000298001000000000000000000000000000000000000000000000000000000000000000000000000000000000000000000000000000000000000000000000000000000000000000000000000000000000000000000000000000000000000000000000000000000000000000000000000000000000000000000000000000000000000000000000000000000000000000000000000000000000000000000000000000000000000000000000000000000000000000000000000000000000000000001721020769242500015845430981859601300398000000000000000000037193303719332000000 40200000000000000000    000000502000000794105112200000000050000330000001N251022000000000000000170511220000000000000000000000000000000000000000100094227373468MIRIAM FERREIRA DA SILVA                RUA PEDRO TAVARES SOBRINHO,53           FREI DAMI   59215000NOVA CRUZ      RN                               I42      00 000063
90001720000000303001000000000000000000000000000000000000000000000000000000000000000000000000000000000000000000000000000000000000000000000000000000000000000000000000000000000000000000000000000000000000000000000000000000000000000000000000000000000000000000000000000000000000000000000000000000000000000000000000000000000000000000000000000000000000000000000000000000000000000000000000000000000000000001721020769242500015845430981859601300398000000000000000000036928303692833000000 40200000000000000000    000000502000000409528112200000000050000330000001N251022000000000000000172811220000000000000000000000000000000000000000100011207217417LIDIANE DE OLIVEIRA ARAUJO              RUA LUIS PEDRO DA COSTA,149                         59215000NOVA CRUZ      RN                               I42      00 000064
9000172000000030800100000000000000000000000000000000000000000000000000000000000000000000000000000000000000000000000000000000000000000000000000000000000000000000000000000000000000000000000000000000000000000000000000000000000000000000000000000000000000000000000000000000000000000000000000000000000000000000000000000000000000000000000000000000000000000000000000000000000000000000000000000000000000000172900017200000003080010000000000000000000000000000000000000000000000000000000000000000000000000000000000000000000000000000000000000000000000000000000000000000000000000000000000000000000000000000000000000000000000000000000000000000000000000000000000000000000000000000000000000000000000000000000000000000000000000000000000000000000000000000000000000000000000000000000000000000000000000000000000000000017290001720000000308001000000000000000000000000000000000000000000000000000000000000000000000000000000000000000000000000000000000000000000000000000000000000000000000000000000000000000000000000000000000000000000000000000000000000000000000000000000000000000000000000000000000000000000000000000000000000000000000000000000000000000000000000000000000000000000000000000000000000000000000000000000000000000001721020769242500015845430981859601300398000000000000000000037187003718700000000 40200000000000000000    000000502000000369405112200000000050000330000001N251022000000000000000170511220000000000000000000000000000000000000000100003934862497LUIZ CARLOS TAVARES DA SILVA            RUA FREI ALBERTO CABRAL,508                         59215000NOVA CRUZ      RN                               I42      00 000067
90001720000000313001000000000000000000000000000000000000000000000000000000000000000000000000000000000000000000000000000000000000000000000000000000000000000000000000000000000000000000000000000000000000000000000000000000000000000000000000000000000000000000000000000000000000000000000000000000000000000000000000000000000000000000000000000000000000000000000000000000000000000000000000000000000000000001721020769242500015845430981859601300398000000000000000000036964703696472000000 40200000000000000000    000000502000000534220112200000000050000330000001N251022000000000000000172011220000000000000000000000000000000000000000100001779581467FAGNER BEZERRA DE SOUZA                 RUA 25 DE DEZEMBRO,111                  ANTONIO PEIX59215000NOVA CRUZ      RN                               I42      00 000068
90001720000000318001000000000000000000000000000000000000000000000000000000000000000000000000000000000000000000000000000000000000000000000000000000000000000000000000000000000000000000000000000000000000000000000000000000000000000000000000000000000000000000000000000000000000000000000000000000000000000000000000000000000000000000000000000000000000000000000000000000000000000000000000000000000000000001721020769242500015845430981859601300398000000000000000000036923403692345000000 40200000000000000000    000000502000000385520112200000000050000330000001N251022000000000000000172011220000000000000000000000000000000000000000100009188791408WEVERTON RODRIGUES DE LIMA              RUA SEVERINO FREIRE BARBOSA,78          VISTA DO    59215000NOVA CRUZ      RN                               I42      00 000069
90001720000000323001000000000000000000000000000000000000000000000000000000000000000000000000000000000000000000000000000000000000000000000000000000000000000000000000000000000000000000000000000000000000000000000000000000000000000000000000000000000000000000000000000000000000000000000000000000000000000000000000000000000000000000000000000000000000000000000000000000000000000000000000000000000000000001721020769242500015845430981859601300398000000000000000000036841503684156000000 40200000000000000000    000000502000001100810112200000000036670330000001N191022000000000000000121011220000000000000000000000000000000000000000100062667009720JOSINALDO FERREIRA DA SILVA             RUA FREI SERAFIM DE CATANEA,347         SAO SEB     59215000NOVA CRUZ      RN                               I42      00 000070
900017200000003266680000000000000000000000000000000000000000000000000000000000000000000000000000000000000000000000000000000000000000000000000000000000000000000000000000000000000000000000000000000000000000000000000000000000000000000000000000000000000000000000000000000000000000000000000000000000000000000000000000000000000000000000000000000000000000000000000000000000000000000000000000000000000000017290001720000000326668000000000000000000000000000000000000000000000000000000000000000000000000000000000000000000000000000000000000000000000000000000000000000000000000000000000000000000000000000000000000000000000000000000000000000000000000000000000000000000000000000000000000000000000000000000000000000000000000000000000000000000000000000000000000000000000000000000000000000000000000000000000000000001729000172000000032666800000000000000000000000000000000000000000000000000000000000000000000000000000000000000000000000000000000000000000000000000000000000000000000000000000000000000000000000000000000000000000000000000000000000000000000000000000000000000000000000000000000000000000000000000000000000000000000000000000000000000000000000000000000000000000000000000000000000000000000000000000000000000000172900017200000003266680000000000000000000000000000000000000000000000000000000000000000000000000000000000000000000000000000000000000000000000000000000000000000000000000000000000000000000000000000000000000000000000000000000000000000000000000000000000000000000000000000000000000000000000000000000000000000000000000000000000000000000000000000000000000000000000000000000000000000000000000000000000000000017290001720000000326668000000000000000000000000000000000000000000000000000000000000000000000000000000000000000000000000000000000000000000000000000000000000000000000000000000000000000000000000000000000000000000000000000000000000000000000000000000000000000000000000000000000000000000000000000000000000000000000000000000000000000000000000000000000000000000000000000000000000000000000000000000000000000001721020769242500015845430981859601300398000000000000000000037124903712494000000 40200000000000000000    000000502000001004120112200000000055000330000001N251022000000000000000182011220000000000000000000000000000000000000000100010350453462MARIA JOSE DE LIMA SILVA                SITIO LAGOA DO COURO,31                 ZONA RURAL  59215000NOVA CRUZ      RN                               I42      00 000075
90001720000000332168000000000000000000000000000000000000000000000000000000000000000000000000000000000000000000000000000000000000000000000000000000000000000000000000000000000000000000000000000000000000000000000000000000000000000000000000000000000000000000000000000000000000000000000000000000000000000000000000000000000000000000000000000000000000000000000000000000000000000000000000000000000000000001721020769242500015845430981859601300398000000000000000000036970303697037000000 40200000000000000000    000000502000000554728112200000000060000330000001N251022000000000000000202811220000000000000000000000000000000000000000100010113120427ISABELE DA SILVA AGUIAR                 RUA ALBERTO MARANHAO,322                SAO SABASTIA59215000NOVA CRUZ      RN                               I42      00 000076
90001720000000338168000000000000000000000000000000000000000000000000000000000000000000000000000000000000000000000000000000000000000000000000000000000000000000000000000000000000000000000000000000000000000000000000000000000000000000000000000000000000000000000000000000000000000000000000000000000000000000000000000000000000000000000000000000000000000000000000000000000000000000000000000000000000000001721020769242500015845430981859601300398000000000000000000036952003695204000000 40200000000000000000    000000502000000492426112200000000050000330000001N251022000000000000000172611220000000000000000000000000000000000000000100070751910473TAINE DA SILVA LUCIO                    RUA JOAO GOUVEIA DA SILVA,105           CIDADE DO   59215000NOVA CRUZ      RN                               I42      00 000077
90001720000000343168000000000000000000000000000000000000000000000000000000000000000000000000000000000000000000000000000000000000000000000000000000000000000000000000000000000000000000000000000000000000000000000000000000000000000000000000000000000000000000000000000000000000000000000000000000000000000000000000000000000000000000000000000000000000000000000000000000000000000000000000000000000000000001721020769242500015845430981859601300398000000000000000000036958503695859000000 40200000000000000000    000000502000000510615112200000000050000330000001N251022000000000000000171511220000000000000000000000000000000000000000100001093653485ROSEANE DA COSTA                        RUA LUIZ PEDRO DA COSTA,75              PLANALTO    59215000NOVA CRUZ      RN                               I42      00 000078
90001720000000348168000000000000000000000000000000000000000000000000000000000000000000000000000000000000000000000000000000000000000000000000000000000000000000000000000000000000000000000000000000000000000000000000000000000000000000000000000000000000000000000000000000000000000000000000000000000000000000000000000000000000000000000000000000000000000000000000000000000000000000000000000000000000000001721020769242500015845430981859601300398000000000000000000036947203694720000000 40200000000000000000    000000502000000477328112200000000050000330000001N251022000000000000000172811220000000000000000000000000000000000000000100070833184415GUIOMAR FELIPE DA SILVA                 RUA VEREADOR JOAO PIMENTA DE MELO,328   F           59215000NOVA CRUZ      RN                               I42      00 000079
90001720000000353168000000000000000000000000000000000000000000000000000000000000000000000000000000000000000000000000000000000000000000000000000000000000000000000000000000000000000000000000000000000000000000000000000000000000000000000000000000000000000000000000000000000000000000000000000000000000000000000000000000000000000000000000000000000000000000000000000000000000000000000000000000000000000001721020769242500015845430981859601300398000000000000000000037009103700917000000 40200000000000000000    000000502000000685010112200000000060000330000001N251022000000000000000201011220000000000000000000000000000000000000000100011651831459ADRIANO PAIXAO DA SILVA                 RUA GERALDO PEIXOTO MARIANO,570         PLANALT     59215000NOVA CRUZ      RN                               I42      00 000080
90001720000000359168000000000000000000000000000000000000000000000000000000000000000000000000000000000000000000000000000000000000000000000000000000000000000000000000000000000000000000000000000000000000000000000000000000000000000000000000000000000000000000000000000000000000000000000000000000000000000000000000000000000000000000000000000000000000000000000000000000000000000000000000000000000000000001721020769242500015845430981859601300398000000000000000000036877203687724000000 40200000000000000000    000000502000000156910112200000000050000330000001N251022000000000000000171011220000000000000000000000000000000000000000100010199999422ALISON MARQUES DA CRUZ                  RUA ASSIS CHATEAUBRIAND,1519            SAO SEBAST  59215000NOVA CRUZ      RN                               I42      00 000081
90001720000000364168000000000000000000000000000000000000000000000000000000000000000000000000000000000000000000000000000000000000000000000000000000000000000000000000000000000000000000000000000000000000000000000000000000000000000000000000000000000000000000000000000000000000000000000000000000000000000000000000000000000000000000000000000000000000000000000000000000000000000000000000000000000000000001721020769242500015845430981859601300398000000000000000000037104203710424000000 40200000000000000000    000000502000000958620112200000000050000330000001N251022000000000000000172011220000000000000000000000000000000000000000100010036948454EMANOEL MESSIAS DA CRUZ CALIXTO         RUA SAO PEDRO,124                       CENTRO      59215000NOVA CRUZ      RN                               I42      00 000082
90001720000000369168000000000000000000000000000000000000000000000000000000000000000000000000000000000000000000000000000000000000000000000000000000000000000000000000000000000000000000000000000000000000000000000000000000000000000000000000000000000000000000000000000000000000000000000000000000000000000000000000000000000000000000000000000000000000000000000000000000000000000000000000000000000000000001721020769242500015845430981859601300398000000000000000000037283303728331000000 40200000000000000000    000000502000000309805122200000000050000330000001N251122000000000000000170512220000000000000000000000000000000000000000100000877566410ANDREA VALDEVINO                        RUA FREI SERAFIM DE CATANEA,1089        FREI D      59215000NOVA CRUZ      RN                               I42      00 000083
90001720000000374168000000000000000000000000000000000000000000000000000000000000000000000000000000000000000000000000000000000000000000000000000000000000000000000000000000000000000000000000000000000000000000000000000000000000000000000000000000000000000000000000000000000000000000000000000000000000000000000000000000000000000000000000000000000000000000000000000000000000000000000000000000000000000001721020769242500015845430981859601300398000000000000000000036964003696405000000 40200000000000000000    000000502000000531310112200000000050000330000001N251022000000000000000171011220000000000000000000000000000000000000000100007603247438MARIA DA PENHA CHRISTINA DA SILVA DE FI SITIO CATOLE,00                         ZONA RURAL  59215000NOVA CRUZ      RN                               I42      00 000084
90001720000000379168000000000000000000000000000000000000000000000000000000000000000000000000000000000000000000000000000000000000000000000000000000000000000000000000000000000000000000000000000000000000000000000000000000000000000000000000000000000000000000000000000000000000000000000000000000000000000000000000000000000000000000000000000000000000000000000000000000000000000000000000000000000000000001721020769242500015845430981859601300398000000000000000000037492903749290000000 40200000000000000000    000000502000000994405122200000000050000330000001N251122000000000000000170512220000000000000000000000000000000000000000100070688402488LUAN BARBOSA DE FRANCA                  RUA SEVERINO MARQUES MOREIRA,01         SAO JUD     59215000NOVA CRUZ      RN                               I42      00 000085
90001720000000384168000000000000000000000000000000000000000000000000000000000000000000000000000000000000000000000000000000000000000000000000000000000000000000000000000000000000000000000000000000000000000000000000000000000000000000000000000000000000000000000000000000000000000000000000000000000000000000000000000000000000000000000000000000000000000000000000000000000000000000000000000000000000000001721020769242500015845430981859601300398000000000000000000036936103693619000000 40200000000000000000    000000502000000438320112200000000050000330000001N251022000000000000000172011220000000000000000000000000000000000000000100001752312490DENISE DANTAS SILVA                     RUA SENADOR GEORGINO AVELINO,770        SAO SE      59215000NOVA CRUZ      RN                               I42      00 000086
90001720000000389168000000000000000000000000000000000000000000000000000000000000000000000000000000000000000000000000000000000000000000000000000000000000000000000000000000000000000000000000000000000000000000000000000000000000000000000000000000000000000000000000000000000000000000000000000000000000000000000000000000000000000000000000000000000000000000000000000000000000000000000000000000000000000001721020769242500015845430981859601300398000000000000000000036935303693538000000 40200000000000000000    000000502000000433710112200000000060000330000001N251022000000000000000201011220000000000000000000000000000000000000000100001685525407EDINELIA DA SILVA COSTA                 RUA VEREADOR PEDRO TAVARES SOBRINHO,71              59215000NOVA CRUZ      RN                               I42      00 000087
90001720000000395168000000000000000000000000000000000000000000000000000000000000000000000000000000000000000000000000000000000000000000000000000000000000000000000000000000000000000000000000000000000000000000000000000000000000000000000000000000000000000000000000000000000000000000000000000000000000000000000000000000000000000000000000000000000000000000000000000000000000000000000000000000000000000001721020769242500015845430981859601300398000000000000000000037159903715990000000 40200000000000000000    000000502000001065910112200000000050000330000001N251022000000000000000171011220000000000000000000000000000000000000000100001762903466JOSE PEDRO DA SILVA                     SITIO LAGOA LIMPA,00                    ZONA RURAL  59215000NOVA CRUZ      RN                               I42      00 000088
90001720000000400168000000000000000000000000000000000000000000000000000000000000000000000000000000000000000000000000000000000000000000000000000000000000000000000000000000000000000000000000000000000000000000000000000000000000000000000000000000000000000000000000000000000000000000000000000000000000000000000000000000000000000000000000000000000000000000000000000000000000000000000000000000000000000001721020769242500015845430981859601300398000000000000000000036955503695557000000 40200000000000000000    000000502000000499828112200000000050000330000001N251022000000000000000172811220000000000000000000000000000000000000000100096679123453ANA CRISTINA DA CRUZ CAMBRAIA           RUA VEREADOR PEDRO TAVARES SOBRINHO,396             59215000NOVA CRUZ      RN                               I42      00 000089
90001720000000405168000000000000000000000000000000000000000000000000000000000000000000000000000000000000000000000000000000000000000000000000000000000000000000000000000000000000000000000000000000000000000000000000000000000000000000000000000000000000000000000000000000000000000000000000000000000000000000000000000000000000000000000000000000000000000000000000000000000000000000000000000000000000000001721020769242500015845430981859601300398000000000000000000036985403698548000000 40200000000000000000    000000502000000609420112200000000050000330000001N251022000000000000000172011220000000000000000000000000000000000000000100001301522422SINVAL ALVES VIANA                      RUA JORGE FELIPE DA SILVA,33            SAO SEBAST  59215000NOVA CRUZ      RN                               I42      00 000090
90001720000000410168000000000000000000000000000000000000000000000000000000000000000000000000000000000000000000000000000000000000000000000000000000000000000000000000000000000000000000000000000000000000000000000000000000000000000000000000000000000000000000000000000000000000000000000000000000000000000000000000000000000000000000000000000000000000000000000000000000000000000000000000000000000000000001721020769242500015845430981859601300398000000000000000000037038103703819000000 40200000000000000000    000000502000000789020112200000000050000330000001N251022000000000000000172011220000000000000000000000000000000000000000100002946692485MARIA EDILEUZA ALVES DA SILVA           RUA PREFEITO SEVERINO AUGUSTO DE MORAIS             59215000NOVA CRUZ      RN                               I42      00 000091
90001720000000415168000000000000000000000000000000000000000000000000000000000000000000000000000000000000000000000000000000000000000000000000000000000000000000000000000000000000000000000000000000000000000000000000000000000000000000000000000000000000000000000000000000000000000000000000000000000000000000000000000000000000000000000000000000000000000000000000000000000000000000000000000000000000000001721020769242500015845430981859601300398000000000000000000036917703691772000000 40200000000000000000    000000502000000359910112200000000060000330000001N251022000000000000000201011220000000000000000000000000000000000000000100001037273451NIELSON SOARES DE ARAUJO                RUA DOUTOR ALCEBIADES CARVALHO ROCHA,30             59215000NOVA CRUZ      RN                               I42      00 000092
90001720000000421168000000000000000000000000000000000000000000000000000000000000000000000000000000000000000000000000000000000000000000000000000000000000000000000000000000000000000000000000000000000000000000000000000000000000000000000000000000000000000000000000000000000000000000000000000000000000000000000000000000000000000000000000000000000000000000000000000000000000000000000000000000000000000001721020769242500015845430981859601300398000000000000000000036295603629562000000 40200000000000000000    000000502000000783115092200000000050000330000001N250822000000000000000171509220000000000000000000000000000000000000000100006068159450JOAO PEREIRA DA SILVA                   RUA JOAO FELIPE DOS ANJOS,350           CIDADE DO   59215000NOVA CRUZ      RN                               I42      00 000093
90001720000000426168000000000000000000000000000000000000000000000000000000000000000000000000000000000000000000000000000000000000000000000000000000000000000000000000000000000000000000000000000000000000000000000000000000000000000000000000000000000000000000000000000000000000000000000000000000000000000000000000000000000000000000000000000000000000000000000000000000000000000000000000000000000000000001721020769242500015845430981859601300398000000000000000000036665403666549000000 40200000000000000000    000000502000000783115102200000000050000330000001N250922000000000000000171510220000000000000000000000000000000000000000100006068159450JOAO PEREIRA DA SILVA                   RUA JOAO FELIPE DOS ANJOS,350           CIDADE DO   59215000NOVA CRUZ      RN                               I42      00 000094
90001720000000431168000000000000000000000000000000000000000000000000000000000000000000000000000000000000000000000000000000000000000000000000000000000000000000000000000000000000000000000000000000000000000000000000000000000000000000000000000000000000000000000000000000000000000000000000000000000000000000000000000000000000000000000000000000000000000000000000000000000000000000000000000000000000000001721020769242500015845430981859601300398000000000000000000037023403702340000000 40200000000000000000    000000502000000736510112200000000050000330000001N251022000000000000000171011220000000000000000000000000000000000000000100003672688410SEVERINA FRANCISCA DOS SANTOS           RUA LOURIVAL MARTINS DOS SANTOS,121     BEL         59215000NOVA CRUZ      RN                               I42      00 000095
90001720000000436168000000000000000000000000000000000000000000000000000000000000000000000000000000000000000000000000000000000000000000000000000000000000000000000000000000000000000000000000000000000000000000000000000000000000000000000000000000000000000000000000000000000000000000000000000000000000000000000000000000000000000000000000000000000000000000000000000000000000000000000000000000000000000001721020769242500015845430981859601300398000000000000000000037049503704955000000 40200000000000000000    000000502000000825920112200000000050000330000001N251022000000000000000172011220000000000000000000000000000000000000000100006359524406MARIA VERA LUCIA DA COSTA LIMA          RUA JOSE LOPES BARBOSA,374              BELA VISTA  59215000NOVA CRUZ      RN                               I42      00 000096
90001720000000441168000000000000000000000000000000000000000000000000000000000000000000000000000000000000000000000000000000000000000000000000000000000000000000000000000000000000000000000000000000000000000000000000000000000000000000000000000000000000000000000000000000000000000000000000000000000000000000000000000000000000000000000000000000000000000000000000000000000000000000000000000000000000000001721020769242500015845430981859601300398000000000000000000036893703689379000000 40200000000000000000    000000502000000243915112200000000050000330000001N251022000000000000000171511220000000000000000000000000000000000000000100069552061415LIANA MARIA DA SILVA                    MAURICIO HENRIQUE DE ARAUJO,38          ALTO DAS    59215000NOVA CRUZ      RN                               I42      00 000097
90001720000000446168000000000000000000000000000000000000000000000000000000000000000000000000000000000000000000000000000000000000000000000000000000000000000000000000000000000000000000000000000000000000000000000000000000000000000000000000000000000000000000000000000000000000000000000000000000000000000000000000000000000000000000000000000000000000000000000000000000000000000000000000000000000000000001721020769242500015845430981859601300398000000000000000000037310003731006000000 40200000000000000000    000000502000000427607122200000000050000330000001N251122000000000000000170712220000000000000000000000000000000000000000100002613628448JOSE MARCOS DE LIMA                     JOAO TOSCANO COELHO,48                  CIDADE DO SO59215000NOVA CRUZ      RN                               I42      00 000098
90001720000000451168000000000000000000000000000000000000000000000000000000000000000000000000000000000000000000000000000000000000000000000000000000000000000000000000000000000000000000000000000000000000000000000000000000000000000000000000000000000000000000000000000000000000000000000000000000000000000000000000000000000000000000000000000000000000000000000000000000000000000000000000000000000000000001721020769242500015845430981859601300398000000000000000000037072303707237000000 40200000000000000000    000000502000000883415112200000000036000330000001N251022000000000000000121511220000000000000000000000000000000000000000100070317376489VICTOR MANOEL ALVES                     RUA SEVERINO AUGUSTO DE MORAIS,0        VISTA       59215000NOVA CRUZ      RN                               I42      00 000099
90001720000000454768000000000000000000000000000000000000000000000000000000000000000000000000000000000000000000000000000000000000000000000000000000000000000000000000000000000000000000000000000000000000000000000000000000000000000000000000000000000000000000000000000000000000000000000000000000000000000000000000000000000000000000000000000000000000000000000000000000000000000000000000000000000000000001721020769242500015845430981859601300398000000000000000000037190803719081000000 40200000000000000000    000000502000000593705112200000000050000330000001N251022000000000000000170511220000000000000000000000000000000000000000100070246895446ELOISE DOS SANTOS BARBOSA               RUA VEREADOR SEVERINO ALVES DA SILVA,24             59215000NOVA CRUZ      RN                               I42      00 000100
90001720000000459768000000000000000000000000000000000000000000000000000000000000000000000000000000000000000000000000000000000000000000000000000000000000000000000000000000000000000000000000000000000000000000000000000000000000000000000000000000000000000000000000000000000000000000000000000000000000000000000000000000000000000000000000000000000000000000000000000000000000000000000000000000000000000001721020769242500015845430981859601300398000000000000000000037037503703754000000 40200000000000000000    000000502000000787605112200000000050000330000001N251022000000000000000170511220000000000000000000000000000000000000000100008515604400ADRIANO SILVA                           RUA DEPUTADO MARCIO MARINHO,00          SAO SEBA    59215000NOVA CRUZ      RN                               I42      00 000101
90001720000000464768000000000000000000000000000000000000000000000000000000000000000000000000000000000000000000000000000000000000000000000000000000000000000000000000000000000000000000000000000000000000000000000000000000000000000000000000000000000000000000000000000000000000000000000000000000000000000000000000000000000000000000000000000000000000000000000000000000000000000000000000000000000000000001721020769242500015845430981859601300398000000000000000000036948603694860000000 40200000000000000000    000000502000000482528112200000000070000330000001N251022000000000000000232811220000000000000000000000000000000000000000100056715781400MARIA LUCAS DA SILVA                    RUA JOSE SALUSTIANO BARBOSA,48          CENTRO      59215000NOVA CRUZ      RN                               I42      00 000102
90001720000000471768000000000000000000000000000000000000000000000000000000000000000000000000000000000000000000000000000000000000000000000000000000000000000000000000000000000000000000000000000000000000000000000000000000000000000000000000000000000000000000000000000000000000000000000000000000000000000000000000000000000000000000000000000000000000000000000000000000000000000000000000000000000000000001721020769242500015845430981859601300398000000000000000000036935003693503000000 40200000000000000000    000000502000000433128112200000000050000330000001N251022000000000000000172811220000000000000000000000000000000000000000100001755238436MARIA IONARA DA SILVA                   RUA CONEGO LUIZ ADOLFO,167              SANTA MARIA 59215000NOVA CRUZ      RN                               I42      00 000103
90001720000000476768000000000000000000000000000000000000000000000000000000000000000000000000000000000000000000000000000000000000000000000000000000000000000000000000000000000000000000000000000000000000000000000000000000000000000000000000000000000000000000000000000000000000000000000000000000000000000000000000000000000000000000000000000000000000000000000000000000000000000000000000000000000000000001721020769242500015845430981859601300398000000000000000000036922103692213000000 40200000000000000000    000000502000000378828112200000000050000330000001N251022000000000000000172811220000000000000000000000000000000000000000100007502501436LEANDRO DA SILVA PORCINO                RUA SOLDADO GENIL,146                   CIDADE DO SO59215000NOVA CRUZ      RN                               I42      00 000104
90001720000000481768000000000000000000000000000000000000000000000000000000000000000000000000000000000000000000000000000000000000000000000000000000000000000000000000000000000000000000000000000000000000000000000000000000000000000000000000000000000000000000000000000000000000000000000000000000000000000000000000000000000000000000000000000000000000000000000000000000000000000000000000000000000000000001721020769242500015845430981859601300398000000000000000000037136003713601000000 40200000000000000000    000000502000001025020112200000000055000330000001N251022000000000000000182011220000000000000000000000000000000000000000100096682817487ADAILTON SOARES DE OLIVEIRA TOMAZ       RUA AURELIANO MARQUES DA SILVA,483      LOTE        59215000NOVA CRUZ      RN                               I42      00 000105
90001720000000487268000000000000000000000000000000000000000000000000000000000000000000000000000000000000000000000000000000000000000000000000000000000000000000000000000000000000000000000000000000000000000000000000000000000000000000000000000000000000000000000000000000000000000000000000000000000000000000000000000000000000000000000000000000000000000000000000000000000000000000000000000000000000000001721020769242500015845430981859601300398000000000000000000037197703719774000000 40200000000000000000    000000502000000983705112200000000060000330000001N251022000000000000000200511220000000000000000000000000000000000000000100002868896413ELISANGELA DO NASCIMENTO LIMA CAMPOS    AVENIDA MARIA IRACEMA DA CRUZ,1042      FREI        59215000NOVA CRUZ      RN                               I42      00 000106
90001720000000493268000000000000000000000000000000000000000000000000000000000000000000000000000000000000000000000000000000000000000000000000000000000000000000000000000000000000000000000000000000000000000000000000000000000000000000000000000000000000000000000000000000000000000000000000000000000000000000000000000000000000000000000000000000000000000000000000000000000000000000000000000000000000000001721020769242500015845430981859601300398000000000000000000036953503695352000000 40200000000000000000    000000502000000495722112200000000050000330000001N251022000000000000000172211220000000000000000000000000000000000000000100007811150433CRISTINA VICENTE DA SILVA               RUA JOSE MORAIS DA COSTA,84                         59215000NOVA CRUZ      RN                               I42      00 000107
90001720000000498268000000000000000000000000000000000000000000000000000000000000000000000000000000000000000000000000000000000000000000000000000000000000000000000000000000000000000000000000000000000000000000000000000000000000000000000000000000000000000000000000000000000000000000000000000000000000000000000000000000000000000000000000000000000000000000000000000000000000000000000000000000000000000001721020769242500015845430981859601300398000000000000000000036961803696189000000 40200000000000000000    000000502000000522220112200000000050000330000001N251022000000000000000172011220000000000000000000000000000000000000000100070774640405ANDRE VICTOR SOUZA DA SILVA             RUA DOUTOR GALDINO LIMA,144                         59215000NOVA CRUZ      RN                               I42      00 000108
90001720000000503268000000000000000000000000000000000000000000000000000000000000000000000000000000000000000000000000000000000000000000000000000000000000000000000000000000000000000000000000000000000000000000000000000000000000000000000000000000000000000000000000000000000000000000000000000000000000000000000000000000000000000000000000000000000000000000000000000000000000000000000000000000000000000001721020769242500015845430981859601300398000000000000000000037047403704742000000 40200000000000000000    000000502000000819810112200000000150000330000001N251022000000000000000501011220000000000000000000000000000000000000000100002418529436JUNIO DE LIMA BRAULIO                   RUA CICERO MAXIMINIANO DA COSTA,45      CENT        59215000NOVA CRUZ      RN                               I42      00 000109
90001720000000518268000000000000000000000000000000000000000000000000000000000000000000000000000000000000000000000000000000000000000000000000000000000000000000000000000000000000000000000000000000000000000000000000000000000000000000000000000000000000000000000000000000000000000000000000000000000000000000000000000000000000000000000000000000000000000000000000000000000000000000000000000000000000000001721020769242500015845430981859601300398000000000000000000037008503700852000000 40200000000000000000    000000502000000682510112200000000110000330000001N251022000000000000000361011220000000000000000000000000000000000000000100011096275481DANILO RIBEIRO DA SILVA                 RUA JOSE MARQUES MOREIRA,388            ALTO DAS F  59215000NOVA CRUZ      RN                               I42      00 000110
90001720000000529268000000000000000000000000000000000000000000000000000000000000000000000000000000000000000000000000000000000000000000000000000000000000000000000000000000000000000000000000000000000000000000000000000000000000000000000000000000000000000000000000000000000000000000000000000000000000000000000000000000000000000000000000000000000000000000000000000000000000000000000000000000000000000001721020769242500015845430981859601300398000000000000000000036967303696731000000 40200000000000000000    000000502000000542228112200000000050000330000001N251022000000000000000172811220000000000000000000000000000000000000000100008401619483JANIELE LOURENCO DOS SANTOS             RUA SEVERINO FREIRE BARBOSA,35          PLANALTO    59215000NOVA CRUZ      RN                               I42      00 000111
90001720000000534268000000000000000000000000000000000000000000000000000000000000000000000000000000000000000000000000000000000000000000000000000000000000000000000000000000000000000000000000000000000000000000000000000000000000000000000000000000000000000000000000000000000000000000000000000000000000000000000000000000000000000000000000000000000000000000000000000000000000000000000000000000000000000001721020769242500015845430981859601300398000000000000000000037054803705480000000 40200000000000000000    000000502000000839015112200000000050000330000001N251022000000000000000171511220000000000000000000000000000000000000000100070829759450YONARA COSTA DA SILVA                   RUA MARIA FELISMINA DA CONCEICAO,55     PLA         59215000NOVA CRUZ      RN                               I42      00 000112
90001720000000539268000000000000000000000000000000000000000000000000000000000000000000000000000000000000000000000000000000000000000000000000000000000000000000000000000000000000000000000000000000000000000000000000000000000000000000000000000000000000000000000000000000000000000000000000000000000000000000000000000000000000000000000000000000000000000000000000000000000000000000000000000000000000000001721020769242500015845430981859601300398000000000000000000037003503700356000000 40200000000000000000    000000502000000665920112200000000050000330000001N251022000000000000000172011220000000000000000000000000000000000000000100006573528450MARIA PATRICIA DE LIRA                  SITIO LAGOA LIMPA,0                     ZONA RURAL  59215000NOVA CRUZ      RN                               I42      00 000113
90001720000000544268000000000000000000000000000000000000000000000000000000000000000000000000000000000000000000000000000000000000000000000000000000000000000000000000000000000000000000000000000000000000000000000000000000000000000000000000000000000000000000000000000000000000000000000000000000000000000000000000000000000000000000000000000000000000000000000000000000000000000000000000000000000000000001721020769242500015845430981859601300398000000000000000000036996103699617000000 40200000000000000000    000000502000000642420112200000000050000330000001N251022000000000000000172011220000000000000000000000000000000000000000100004050950405FABIO LIMA DE MELO                      RUA DEPUTADO MARCIO MARINHO,119         PLANALT     59215000NOVA CRUZ      RN                               I42      00 000114
90001720000000549268000000000000000000000000000000000000000000000000000000000000000000000000000000000000000000000000000000000000000000000000000000000000000000000000000000000000000000000000000000000000000000000000000000000000000000000000000000000000000000000000000000000000000000000000000000000000000000000000000000000000000000000000000000000000000000000000000000000000000000000000000000000000000001721020769242500015845430981859601300398000000000000000000036873003687309000000 40200000000000000000    000000502000000129620112200000000070000330000001N251022000000000000000232011220000000000000000000000000000000000000000100057182752468NIRINEIDE GUSTAVO DE ARAUJO             RUA JOSE CORSINO FERREIRA,72            FREI DAMIA  59215000NOVA CRUZ      RN                               I42      00 000115
90001720000000556268000000000000000000000000000000000000000000000000000000000000000000000000000000000000000000000000000000000000000000000000000000000000000000000000000000000000000000000000000000000000000000000000000000000000000000000000000000000000000000000000000000000000000000000000000000000000000000000000000000000000000000000000000000000000000000000000000000000000000000000000000000000000000001721020769242500015845430981859601300398000000000000000000036966403696642000000 40200000000000000000    000000502000000539915112200000000050000330000001N251022000000000000000171511220000000000000000000000000000000000000000100011442810408PERICLES AFONSO DE LIMA                 RUA CONEGO SEVERINO RAMALHO,178         CENTRO      59215000NOVA CRUZ      RN                               I42      00 000116
90001720000000561268000000000000000000000000000000000000000000000000000000000000000000000000000000000000000000000000000000000000000000000000000000000000000000000000000000000000000000000000000000000000000000000000000000000000000000000000000000000000000000000000000000000000000000000000000000000000000000000000000000000000000000000000000000000000000000000000000000000000000000000000000000000000000001721020769242500015845430981859601300398000000000000000000036867103686710000000 40200000000000000000    000000502000000099415112200000000105000330000001N251022000000000000000351511220000000000000000000000000000000000000000218242454000134ALIMENTOS POTIGUAR                      RUA FREI SERAFIM DE CATANEA,0           SAO SEBAS   59215000NOVA CRUZ      RN                               I42      00 000117
90001720000000571768000000000000000000000000000000000000000000000000000000000000000000000000000000000000000000000000000000000000000000000000000000000000000000000000000000000000000000000000000000000000000000000000000000000000000000000000000000000000000000000000000000000000000000000000000000000000000000000000000000000000000000000000000000000000000000000000000000000000000000000000000000000000000001721020769242500015845430981859601300398000000000000000000037205503720551000000 40200000000000000000    000000502000000028415112200000000140000330000001N271022000000000000000461511220000000000000000000000000000000000000000100000778657400MARIA ADRIANA DE SOUZA                  ANTONIO GOVEIA NETO,422                 VISTA DO SOL59215000NOVA CRUZ      RN                               I42      00 000118
90001720000000585768000000000000000000000000000000000000000000000000000000000000000000000000000000000000000000000000000000000000000000000000000000000000000000000000000000000000000000000000000000000000000000000000000000000000000000000000000000000000000000000000000000000000000000000000000000000000000000000000000000000000000000000000000000000000000000000000000000000000000000000000000000000000000001721020769242500015845430981859601300398000000000000000000037020803702081000000 40200000000000000000    000000502000000727720112200000000050000330000001N251022000000000000000172011220000000000000000000000000000000000000000100071267003421FABIANO FERREIRA DA SILVA               RUA LUIS PEDRO DA COSTA,79              PLANALTO    59215000NOVA CRUZ      RN                               I42      00 000119
90001720000000590768000000000000000000000000000000000000000000000000000000000000000000000000000000000000000000000000000000000000000000000000000000000000000000000000000000000000000000000000000000000000000000000000000000000000000000000000000000000000000000000000000000000000000000000000000000000000000000000000000000000000000000000000000000000000000000000000000000000000000000000000000000000000000001721020769242500015845430981859601300398000000000000000000037167203716724000000 40200000000000000000    000000502000001076310112200000000055000330000001N251022000000000000000181011220000000000000000000000000000000000000000100008633821427MARIA WILLIANE DOS SANTOS               SITIO LAJEIRO DA ONCA,00                ZONA RURAL  59215000NOVA CRUZ      RN                               I42      00 000120
90001720000000596268000000000000000000000000000000000000000000000000000000000000000000000000000000000000000000000000000000000000000000000000000000000000000000000000000000000000000000000000000000000000000000000000000000000000000000000000000000000000000000000000000000000000000000000000000000000000000000000000000000000000000000000000000000000000000000000000000000000000000000000000000000000000000001721020769242500015845430981859601300398000000000000000000036870603687066000000 40200000000000000000    000000502000000116520112200000000110000330000001N251022000000000000000362011220000000000000000000000000000000000000000100007164711402ALINE CRESCENCIO MONTEIRO               ANTONIO GOUVEIA NETO,43                 VISTA DO SOL59215000NOVA CRUZ      RN                               I42      00 000121
90001720000000607268000000000000000000000000000000000000000000000000000000000000000000000000000000000000000000000000000000000000000000000000000000000000000000000000000000000000000000000000000000000000000000000000000000000000000000000000000000000000000000000000000000000000000000000000000000000000000000000000000000000000000000000000000000000000000000000000000000000000000000000000000000000000000001721020769242500015845430981859601300398000000000000000000037002003700208000000 40200000000000000000    000000502000000661220112200000000050000330000001N251022000000000000000172011220000000000000000000000000000000000000000100003559747708EDNEI MEDEIROS RANGEL                   AV VICENTE MARCILIO DA SILVA,0          NOVA DES    59215000NOVA CRUZ      RN                               I42      00 000122
90001720000000612268000000000000000000000000000000000000000000000000000000000000000000000000000000000000000000000000000000000000000000000000000000000000000000000000000000000000000000000000000000000000000000000000000000000000000000000000000000000000000000000000000000000000000000000000000000000000000000000000000000000000000000000000000000000000000000000000000000000000000000000000000000000000000001721020769242500015845430981859601300398000000000000000000037191303719138000000 40200000000000000000    000000502000000614905112200000000060000330000001N251022000000000000000200511220000000000000000000000000000000000000000100007732950461REGINA DE ANDRADE PATRICIO              RUA VEREADOR ANTONIO PEQUENO DOS SANTOS             59215000NOVA CRUZ      RN                               I42      00 000123
90001720000000618268000000000000000000000000000000000000000000000000000000000000000000000000000000000000000000000000000000000000000000000000000000000000000000000000000000000000000000000000000000000000000000000000000000000000000000000000000000000000000000000000000000000000000000000000000000000000000000000000000000000000000000000000000000000000000000000000000000000000000000000000000000000000000001721020769242500015845430981859601300398000000000000000000037160503716058000000 40200000000000000000    000000502000001066810112200000000055000330000001N251022000000000000000181011220000000000000000000000000000000000000000100070086250493LUCIANO DIOGO DA SILVA                  SITIO XIQUE XIQUE,00                    ZONA RURAL  59215000NOVA CRUZ      RN                               I42      00 000124
90001720000000623768000000000000000000000000000000000000000000000000000000000000000000000000000000000000000000000000000000000000000000000000000000000000000000000000000000000000000000000000000000000000000000000000000000000000000000000000000000000000000000000000000000000000000000000000000000000000000000000000000000000000000000000000000000000000000000000000000000000000000000000000000000000000000001721020769242500015845430981859601300398000000000000000000037188903718891000000 40200000000000000000    000000502000000471805112200000000070000330000001N251022000000000000000230511220000000000000000000000000000000000000000100006101170411TEREZA BERTOLDO DA PAIXAO SILVA         RUA VEREADOR PEDRO TAVARES SOBRINHO,199             59215000NOVA CRUZ      RN                               I42      00 000125
9000172000000063076800000000000000000000000000000000000000000000000000000000000000000000000000000000000000000000000000000000000000000000000000000000000000000000000000000000000000000000000000000000000000000000000000000000000000000000000000000000000000000000000000000000000000000000000000000000000000000000000000000000000000000000000000000000000000000000000000000000000000000000000000000000000000000172900017200000006307680000000000000000000000000000000000000000000000000000000000000000000000000000000000000000000000000000000000000000000000000000000000000000000000000000000000000000000000000000000000000000000000000000000000000000000000000000000000000000000000000000000000000000000000000000000000000000000000000000000000000000000000000000000000000000000000000000000000000000000000000000000000000000017290001720000000630768000000000000000000000000000000000000000000000000000000000000000000000000000000000000000000000000000000000000000000000000000000000000000000000000000000000000000000000000000000000000000000000000000000000000000000000000000000000000000000000000000000000000000000000000000000000000000000000000000000000000000000000000000000000000000000000000000000000000000000000000000000000000000001721020769242500015845430981859601300398000000000000000000036868703686876000000 40200000000000000000    000000502000000106428112200000000070000330000001N251022000000000000000232811220000000000000000000000000000000000000000100022986499449MARIO JACKES FERREIRA DA SILVA          PRES. JUCELINO KAUBISCHEK,26            CENTRO      59215000NOVA CRUZ      RN                               I42      00 000128
90001720000000637768000000000000000000000000000000000000000000000000000000000000000000000000000000000000000000000000000000000000000000000000000000000000000000000000000000000000000000000000000000000000000000000000000000000000000000000000000000000000000000000000000000000000000000000000000000000000000000000000000000000000000000000000000000000000000000000000000000000000000000000000000000000000000001721020769242500015845430981859601300398000000000000000000036999803699986000000 40200000000000000000    000000502000000653815112200000000050000330000001N251022000000000000000171511220000000000000000000000000000000000000000100007139700494GEISA FELIX GOMES                       RUA CONEGO LUIZ ADOLFO,321              SANTA MARIA 59215000NOVA CRUZ      RN                               I42      00 000129
90001720000000642768000000000000000000000000000000000000000000000000000000000000000000000000000000000000000000000000000000000000000000000000000000000000000000000000000000000000000000000000000000000000000000000000000000000000000000000000000000000000000000000000000000000000000000000000000000000000000000000000000000000000000000000000000000000000000000000000000000000000000000000000000000000000000001721020769242500015845430981859601300398000000000000000000036951903695190000000 40200000000000000000    000000502000000492310112200000000070000330000001N251022000000000000000231011220000000000000000000000000000000000000000100026141744400ANTONIO BARBOSA                         RUA VEREADOR SEVERINO ALVES DA SILVA,20             59215000NOVA CRUZ      RN                               I42      00 000130
90001720000000649768000000000000000000000000000000000000000000000000000000000000000000000000000000000000000000000000000000000000000000000000000000000000000000000000000000000000000000000000000000000000000000000000000000000000000000000000000000000000000000000000000000000000000000000000000000000000000000000000000000000000000000000000000000000000000000000000000000000000000000000000000000000000000001721020769242500015845430981859601300398000000000000000000036966603696669000000 40200000000000000000    000000502000000540328112200000000050000330000001N251022000000000000000172811220000000000000000000000000000000000000000100070769669484EDVALDO CORDEIRO DA SILVA               RUA JOAO DE AMARO DE OLIVEIRA,350       SANTA       59215000NOVA CRUZ      RN                               I42      00 000131
90001720000000654768000000000000000000000000000000000000000000000000000000000000000000000000000000000000000000000000000000000000000000000000000000000000000000000000000000000000000000000000000000000000000000000000000000000000000000000000000000000000000000000000000000000000000000000000000000000000000000000000000000000000000000000000000000000000000000000000000000000000000000000000000000000000000001721020769242500015845430981859601300398000000000000000000037197103719715000000 40200000000000000000    000000502000000950605112200000000050000330000001N251022000000000000000170511220000000000000000000000000000000000000000100001790890489JACIELY CALINE DE MORAIS NEVES          RUA MARIA LEDO MOUSINHO,774                         59215000NOVA CRUZ      RN                               I42      00 000132
