01REMESSA01COBRANCA       45430981859601300398INTELNET SERVICO DE MULTIMIDIA033SANTANDER      2811220000000000000000                                                                                                                                                                                                                                                                                   000000001
1020769242500015845430981859601300398000000000000000000037577103757714000000 40200000000000000000    000000501000001110220122200000000050000330000001N251122000000000000000172012220000000000000000000000000000000000000000100007867482490MARIA JULIANA XAVIER DA SILVA           SITIO PAJUCARA,00                       ZONA RURAL  59219000BREJINHO       RN                               I42      00 000002
1020769242500015845430981859601300398000000000000000000037577203757722000000 40200000000000000000    000000501000001109205122200000000023330330000001N251122000000000000000080512220000000000000000000000000000000000000000100009660553498CRISTINA BARBOSA DA SILVA               SITIO TABULEIRO,429                     ZONA RURAL  59219000BREJINHO       RN                               I42      00 000003
1020769242500015845430981859601300398000000000000000000037577303757730000000 40200000000000000000    000000501000001109515122200000000046670330000001N251122000000000000000151512220000000000000000000000000000000000000000100042268737420JOSEFA ALVES DE HOLANDA                 SITIO PAJUCARA,00                       ZONA RURAL  59219000BREJINHO       RN                               I42      00 000004
