01REMESSA01COBRANCA       45430981859601300398INTELNET SERVICO DE MULTIMIDIA033SANTANDER      2811220000000000000000                                                                                                                                                                                                                                                                                   000000001
1020769242500015845430981859601300398000000000000000000037577103757714000000 40200000000000000000    000000501000001110220122200000000050000330000001N251122000000000000000172012220000000000000000000000000000000000000000100007867482490MARIA JULIANA XAVIER DA SILVA           SITIO PAJUCARA,00                       ZONA RURAL  59219000BREJINHO       RN                               I42      00 000002
1020769242500015845430981859601300398000000000000000000037577203757722000000 40200000000000000000    000000501000001109205122200000000023330330000001N251122000000000000000080512220000000000000000000000000000000000000000100009660553498CRISTINA BARBOSA DA SILVA               SITIO TABULEIRO,429                     ZONA RURAL  59219000BREJINHO       RN                               I42      00 000003
1020769242500015845430981859601300398000000000000000000037577303757730000000 40200000000000000000    000000501000001109515122200000000046670330000001N251122000000000000000151512220000000000000000000000000000000000000000100042268737420JOSEFA ALVES DE HOLANDA                 SITIO PAJUCARA,00                       ZONA RURAL  59219000BREJINHO       RN                               I42      00 000004
1020769242500015845430981859601300398000000000000000000037132203713229000000 40200000000000000000    000000502000001018810112200000000060000330000001N251022000000000000000201011220000000000000000000000000000000000000000100006365061420JOSELITO PAIXAO DIAS                    RUA 8 DE DEZEMBRO,80                    ANTONIO PEIX59215000NOVA CRUZ      RN                               I42      00 000005
1020769242500015845430981859601300398000000000000000000037201103720110000000 40200000000000000000    000000502000001101410112200000000026670330000001N251022000000000000000091011220000000000000000000000000000000000000000100070757781454RAIANA TUANA DA PAIXAO                  RUA VEREADOR JOSE ABILIO DA SILVA,251   S           59215000NOVA CRUZ      RN                               I42      00 000006
1020769242500015845430981859601300398000000000000000000032566403256642000000 40200000000000000000    000000502000000409910112100000000060000330000001N251021000000000000000201011210000000000000000000000000000000000000000100002742932429JOSEFA JERONIMO DA SILVA                RUA JOACIR MARTINS DE LIMA,398          SAO JUDA    59215000NOVA CRUZ      RN                               I42      00 000007
1020769242500015845430981859601300398000000000000000000037001403700143000000 40200000000000000000    000000502000000659720112200000000060000330000001N251022000000000000000202011220000000000000000000000000000000000000000100070271193409DIEGO GOMES DA SILVA                    RUA JOSE BONIFACIO,122                  SAO SEBASTIA59215000NOVA CRUZ      RN                               I42      00 000008
1020769242500015845430981859601300398000000000000000000037133603713369000000 40200000000000000000    000000502000001020920112200000000050000330000001N251022000000000000000172011220000000000000000000000000000000000000000100018839738487MARIA ELMA DE SOUZA FERNANDES           ODILON SEVERINO DA CUNHA,181            CIDADE DO   59215000NOVA CRUZ      RN                               I42      00 000009
1020769242500015845430981859601300398000000000000000000036921503692159000000 40200000000000000000    000000502000000377315112200000000050000330000001N251022000000000000000171511220000000000000000000000000000000000000000100004910485481JOSE COSME BERNARDO                     RUA PREFEITO SEVERINO AUGUSTO DE MORAIS             59215000NOVA CRUZ      RN                               I42      00 000010
