01REMESSA01COBRANCA       45430981859601300398INTELNET SERVICO DE MULTIMIDIA033SANTANDER      2110220000000000000000                                                                                                                                                                                                                                                                                   000000001
