01REMESSA01COBRANCA       45430981859601300398INTELNET SERVICO DE MULTIMIDIA033SANTANDER      0711220000000000000000                                                                                                                                                                                                                                                                                   000000001
1020769242500015845430981859601300398000000000000000000036559003655903000000 40200000000000000000    000000501000000414525102200000000050000330000001N250922000000000000000172510220000000000000000000000000000000000000000100033254775856GERSON SOARES DA SILVA                  RUA PROJETADA,00                        CAMPO NOVO  59215000NOVA CRUZ      RN                               I42      00 000002
1020769242500015845430981859601300398000000000000000000036929803692981000000 40200000000000000000    000000501000000414505112200000000050000330000001N251022000000000000000170511220000000000000000000000000000000000000000100033254775856GERSON SOARES DA SILVA                  RUA PROJETADA,00                        CAMPO NOVO  59215000NOVA CRUZ      RN                               I42      00 000003
1020769242500015845430981859601300398000000000000000000036834203683427000000 40200000000000000000    000000501000001098505112200000000050000330000001N051022000000000000000170511220000000000000000000000000000000000000000100010859112411DIEGO XAVIER DA SILVA                   RUA DIOGENES DA CUNHA LIMA,61           CENTRO      59215000NOVA CRUZ      RN                               I42      00 000004
1020769242500015845430981859601300398000000000000000000037045503704556000000 40200000000000000000    000000501000000814610112200000000050000330000001N251022000000000000000171011220000000000000000000000000000000000000000100071492607487MARINALVA FABRICIO DA SILVA             RUA PROJETADA,0                         NOVA DESCOBE59215000NOVA CRUZ      RN                               I42      00 000005
1020769242500015845430981859601300398000000000000000000036767403676749000000 40200000000000000000    000000501000001027115102200000000055000330000001N250922000000000000000181510220000000000000000000000000000000000000000100004915359450SEVERINA ALEXANDRE DA SILVA             SITIO BOQUEIRAO,00                      ZONA RURAL  59215000NOVA CRUZ      RN                               I42      00 000006
1020769242500015845430981859601300398000000000000000000036953403695344000000 40200000000000000000    000000501000000495507112200000000050000330000001N251022000000000000000170711220000000000000000000000000000000000000000100048170488400MARIA DO SOCORRO VIANA DE OLIVEIRA      TV ALBERTO MARANHAO,414                 SAO SEBASTIA59215000NOVA CRUZ      RN                               I42      00 000007
1020769242500015845430981859601300398000000000000000000036608403660842000000 40200000000000000000    000000501000000588620102200000000050000330000001N250922000000000000000172010220000000000000000000000000000000000000000100011384291474WEVERTON WEGISLLYS DA COSTA SILVA       RUA JOSE BATISTA DA SILVA,667           ANTONIO P   59215000NOVA CRUZ      RN                               I42      00 000008
1020769242500015845430981859601300398000000000000000000037209903720993000000 40200000000000000000    000000501000001105710122200000000081670330000001N051122000000000000000271012220000000000000000000000000000000000000000100004480560467AILTON MARQUES DE OLIVEIRA              RUA ASSIS CHATEAUBRIAND,1093            SAO SEBAST  59215000NOVA CRUZ      RN                               I42      00 000009
1020769242500015845430981859601300398000000000000000000036816003681602000000 40200000000000000000    000000501000000572120102200000000050000330000001N250922000000000000000172010220000000000000000000000000000000000000000100008273088413LEANDRO GOMES DA SILVA                  SITIO LAGOA LIMPA,46                    ZONA RURAL  59215000NOVA CRUZ      RN                               I42      00 000010
1020769242500015845430981859601300398000000000000000000037210003721000000000 40200000000000000000    000000501000001105120122200000000090000330000001N051122000000000000000302012220000000000000000000000000000000000000000100000882142496MARIA DO SOCORRO DE LIMA                SITIO LAGOA DOS CURRAIS,295                         59215000NOVA CRUZ      RN                               I42      00 000011
1020769242500015845430981859601300398000000000000000000036987703698777000000 40200000000000000000    000000501000000615710112200000000055000330000001N251022000000000000000181011220000000000000000000000000000000000000000100079208711404BENEDITA LUCIA DA COSTA                 SITIO BOQUEIRAO,0                       ZONA RURAL  59215000NOVA CRUZ      RN                               I42      00 000012
1020769242500015845430981859601300398000000000000000000036977403697746000000 40200000000000000000    000000501000000581210112200000000050000330000001N251022000000000000000171011220000000000000000000000000000000000000000100003321152401LUCIANA SELMA BERNARDINO DA COSTA       RUA CARLOS PEREIRA MATOS,1343           ALTO DAS    59215000NOVA CRUZ      RN                               I42      00 000013
1020769242500015845430981859601300398000000000000000000037150903715094000000 40200000000000000000    000000501000001052005112200000000060000330000001N251022000000000000000200511220000000000000000000000000000000000000000100005619396401ADRIANA DA SILVA DE FRANCA              RUA SEVERINO MARQUES MOREIRA,23         SAO JUD     59215000NOVA CRUZ      RN                               I42      00 000014
1020769242500015845430981859601300398000000000000000000037066803706680000000 40200000000000000000    000000501000000869605112200000000060000330000001N251022000000000000000200511220000000000000000000000000000000000000000100003804620442CARLA MARIA DOS SANTOS                  RUA PROJETADA,0                         CAMPO NOVO  59215000NOVA CRUZ      RN                               I42      00 000015
1020769242500015845430981859601300398000000000000000000037000203700020000000 40200000000000000000    000000501000000654810112200000000050000330000001N251022000000000000000171011220000000000000000000000000000000000000000100002922732401MARINALVA FRANCISCO                     RUA JOAO TOSCANO COELHO,101                         59215000NOVA CRUZ      RN                               I42      00 000016
1020769242500015845430981859601300398000000000000000000037035803703584000000 40200000000000000000    000000501000000782405112200000000050000330000001N251022000000000000000170511220000000000000000000000000000000000000000100001211473473MARIA NAZARE BARBOSA                    RUA CONEGO SEVERINO RAMALHO,226         CENTRO      59215000NOVA CRUZ      RN                               I42      00 000017
1020769242500015845430981859601300398000000000000000000036916903691691000000 40200000000000000000    000000501000000356110112200000000050000330000001N251022000000000000000171011220000000000000000000000000000000000000000100096992638491MARINALVA JACINTO                       RUA VEREADOR PEDRO TAVARES SOBRINHO,255             59215000NOVA CRUZ      RN                               I42      00 000018
1020769242500015845430981859601300398000000000000000000036622303662233000000 40200000000000000000    000000501000000635810102200000000050000330000001N250922000000000000000171010220000000000000000000000000000000000000000100002447875495VERA SILVA DE LIMA COSTA                RUA ALBERTO MARANHAO,141                SAO SEBASTIA59215000NOVA CRUZ      RN                               I42      00 000019
1020769242500015845430981859601300398000000000000000000036524903652491000000 40200000000000000000    000000501000000255215102200000000050000330000001N250922000000000000000171510220000000000000000000000000000000000000000100005247591461ALESSANDRA VIANA DE LIMA                RUA FELIPE CAMARAO,19                   SAO SEBASTIA59215000NOVA CRUZ      RN                               I42      00 000020
1020769242500015845430981859601300398000000000000000000036588803658880000000 40200000000000000000    000000501000000514820102200000000050000330000001N250922000000000000000172010220000000000000000000000000000000000000000100094224757400MARIA DA CONCEICAO DE GOIS              RUA PROFESSOR MARIO PINOT,183           SAO SEBAS   59215000NOVA CRUZ      RN                               I42      00 000021
1020769242500015845430981859601300398000000000000000000037070803707083000000 40200000000000000000    000000501000000879605112200000000060000330000001N251022000000000000000200511220000000000000000000000000000000000000000100003539913416MARIA LUCIA DE LIMA MELO                RUA VEREADOR PEDRO TAVARES SOBRINHO,24              59215000NOVA CRUZ      RN                               I42      00 000022
1020769242500015845430981859601300398000000000000000000036994403699447000000 40200000000000000000    000000501000000637705112200000000050000330000001N251022000000000000000170511220000000000000000000000000000000000000000100008830567477ANDREA DA SILVA                         RUA SEVERINO MARQUES MOREIRA,88         SAO SEB     59215000NOVA CRUZ      RN                               I42      00 000023
1020769242500015845430981859601300398000000000000000000036969303696936000000 40200000000000000000    000000501000000551005112200000000050000330000001N251022000000000000000170511220000000000000000000000000000000000000000100009289522402JOSE VITOR FREITAS FLOR                 RUA DA PALHA,0                          NOVA DESCOBE59215000NOVA CRUZ      RN                               I42      00 000024
1020769242500015845430981859601300398000000000000000000036818603681866000000 40200000000000000000    000000501000000768805102200000000060000330000001N250922000000000000000200510220000000000000000000000000000000000000000100070246650419MONICA AVELINO DA COSTA                 RUA VEREADOR JOSE ANDRE DIAS,266        SALGAD      59215000NOVA CRUZ      RN                               I42      00 000025
1020769242500015845430981859601300398000000000000000000036981303698130000000 40200000000000000000    000000501000000594410112200000000060000330000001N251022000000000000000201011220000000000000000000000000000000000000000100007636505444WEDSON FERREIRA DE LIMA                 RUA 25 DE DEZEMBRO,237                  ANTONIO PEIX59215000NOVA CRUZ      RN                               I42      00 000026
1020769242500015845430981859601300398000000000000000000036541003654109000000 40200000000000000000    000000501000000337120102200000000060000330000001N250922000000000000000202010220000000000000000000000000000000000000000100087541670430MARIA DAS DORES COSTA DA SILVA          RUA LOURDES GESTEIRA,138                FREI DAMIAO 59215000NOVA CRUZ      RN                               I42      00 000027
1020769242500015845430981859601300398000000000000000000036865903686590000000 40200000000000000000    000000501000000093605112200000000050000330000001N251022000000000000000170511220000000000000000000000000000000000000000100087531208415JOSE LIMA DA CRUZ                       RUA JOAO DA MATA,19                     LOTEAMENTO C59215000NOVA CRUZ      RN                               I42      00 000028
1020769242500015845430981859601300398000000000000000000037088503708853000000 40200000000000000000    000000501000000924405112200000000040000330000001N251022000000000000000130511220000000000000000000000000000000000000000100007482062483ALENALDO CESAR FERREIRA DA SILVA        RUA MARIA FELISMINA DA CONCEICAO,38     SAN         59215000NOVA CRUZ      RN                               I42      00 000029
1020769242500015845430981859601300398000000000000000000036845103684512000000 40200000000000000000    000000501000000017227112200000000050000330000001N251022000000000000000172711220000000000000000000000000000000000000000100001411255437JOSE ANGELO FERNANDES                   RUA SENADOR GEORGINO AVELINO,1090       FREI        59215000NOVA CRUZ      RN                               I42      00 000030
1020769242500015845430981859601300398000000000000000000037032003703207000000 40200000000000000000    000000501000000766810112200000000050000330000001N251022000000000000000171011220000000000000000000000000000000000000000100056546246449MARTA SUELI ALEXANDRE DA SILVA          RUA CONEGO LUIZ ADOLFO,331              SANTA MARIA 59215000NOVA CRUZ      RN                               I42      00 000031
1020769242500015845430981859601300398000000000000000000036815303681530000000 40200000000000000000    000000501000000512920102200000000060000330000001N250922000000000000000202010220000000000000000000000000000000000000000100070836679423ALCIRAM MORAIS JUNIOR                   TV VINTE E CINCO DE DEZEMBRO,34         ANTONIO     59215000NOVA CRUZ      RN                               I42      00 000032
1020769242500015845430981859601300398000000000000000000036815403681548000000 40200000000000000000    000000501000000512920102200000000050000330000001N250922000000000000000172010220000000000000000000000000000000000000000100070836679423ALCIRAM MORAIS JUNIOR                   TV VINTE E CINCO DE DEZEMBRO,34         ANTONIO     59215000NOVA CRUZ      RN                               I42      00 000033
1020769242500015845430981859601300398000000000000000000037063703706370000000 40200000000000000000    000000501000000861205112200000000050000330000001N251022000000000000000170511220000000000000000000000000000000000000000100096946938453ELIANA PEREIRA DA SILVA                 RUA JOAO BALBINO,98                     VISTA DO SOL59215000NOVA CRUZ      RN                               I42      00 000034
1020769242500015845430981859601300398000000000000000000036937903693791000000 40200000000000000000    000000501000000442105112200000000050000330000001N251022000000000000000170511220000000000000000000000000000000000000000100018818684434MARIA DAS GRACAS MOURA DA SILVA         RUA TREZE DE MAIO,284                   CENTRO      59215000NOVA CRUZ      RN                               I42      00 000035
1020769242500015845430981859601300398000000000000000000030825003082504000000 40200000000000000000    000000501000000703915062100000000070000330000001N250521000000000000000231506210000000000000000000000000000000000000000100087537184453ADRIANO GOMES DA SILVA                  RUA OSCAR FIRMINO DE MEDEIROS,16        CIDADE      59215000NOVA CRUZ      RN                               I42      00 000036
1020769242500015845430981859601300398000000000000000000037210103721019000000 40200000000000000000    000000501000000703908112200000000035000330000001N051122000000000000000120811220000000000000000000000000000000000000000100087537184453ADRIANO GOMES DA SILVA                  RUA OSCAR FIRMINO DE MEDEIROS,16        CIDADE      59215000NOVA CRUZ      RN                               I42      00 000037
1020769242500015845430981859601300398000000000000000000036646703664678000000 40200000000000000000    000000501000000718420102200000000050000330000001N250922000000000000000172010220000000000000000000000000000000000000000100008417367403PRISCILLA BALBINO RIBEIRO DE LIMA       RUA MARIA ISABEL GOMES,100              FREI DAMIAO 59215000NOVA CRUZ      RN                               I42      00 000038
1020769242500015845430981859601300398000000000000000000036535303653536000000 40200000000000000000    000000501000000308028102200000000050000330000001N250922000000000000000172810220000000000000000000000000000000000000000100070236559486PALOMA CAMILA BALBINO DA SILVA DE LIMA  RUA SATIRO DOMINGOS,26                  SAO SEBASTIA59215000NOVA CRUZ      RN                               I42      00 000039
1020769242500015845430981859601300398000000000000000000036686903668690000000 40200000000000000000    000000501000000847720102200000000050000330000001N250922000000000000000172010220000000000000000000000000000000000000000100000180674412DILSON GOMES DA SILVA                   RUA 8 DE DEZEMBRO,38                    ANTONIO PEIX59215000NOVA CRUZ      RN                               I42      00 000040
1020769242500015845430981859601300398000000000000000000036939603693961000000 40200000000000000000    000000501000000448710112200000000050000330000001N251022000000000000000171011220000000000000000000000000000000000000000100050742914704ANTONIO NOGUEIRA DA SILVA               RUA SENADOR GEORGINO AVELINO,225        SAO SE      59215000NOVA CRUZ      RN                               I42      00 000041
1020769242500015845430981859601300398000000000000000000036946803694682000000 40200000000000000000    000000501000000474805112200000000050000330000001N251022000000000000000170511220000000000000000000000000000000000000000100094224609487FRANCISCO RIBEIRO DA SILVA              RUA CAMPO SANTO,209                     CENTRO      59215000NOVA CRUZ      RN                               I42      00 000042
1020769242500015845430981859601300398000000000000000000036298103629813000000 40200000000000000000    000000501000000790620092200000000060000330000001N250822000000000000000202009220000000000000000000000000000000000000000100008181697456FABIO DE OLIVEIRA ZUZA                  RUA DOIS DE FEVEREIRO,140               SALGADO     59215000NOVA CRUZ      RN                               I42      00 000043
1020769242500015845430981859601300398000000000000000000036773303677338000000 40200000000000000000    000000501000001039215102200000000060000330000001N250922000000000000000201510220000000000000000000000000000000000000000100089790448449SEBASTIAO VERISSIMO DA SILVA            RUA GETULIO VARGAS,466                  CENTRO      59215000NOVA CRUZ      RN                               I42      00 000044
1020769242500015845430981859601300398000000000000000000037003403700348000000 40200000000000000000    000000501000000665810112200000000050000330000001N251022000000000000000171011220000000000000000000000000000000000000000100008883950437JANIELI MOREIRA DA COSTA                RUA SEVERINO AUGUSTO DE MORAIS,04       VISTA       59215000NOVA CRUZ      RN                               I42      00 000045
1020769242500015845430981859601300398000000000000000000037021803702189000000 40200000000000000000    000000501000000730515112200000000025000330000001N251022000000000000000081511220000000000000000000000000000000000000000100094225192415ENALVA MARIA NUNES DA SILVA             RUA PANTALEAO JUSTINO DE LIMA,28        PLANAL      59215000NOVA CRUZ      RN                               I42      00 000046
1020769242500015845430981859601300398000000000000000000036506903650693000000 40200000000000000000    000000501000000157117102200000000050000330000001N250922000000000000000171710220000000000000000000000000000000000000000100091258707420VILMA MARIA DE SIQUEIRA                 RUA VALDECI VICTOR DA SILVA,130         PORTAL      59215000NOVA CRUZ      RN                               I42      00 000047
1020769242500015845430981859601300398000000000000000000037122303712230000000 40200000000000000000    000000501000000998705112200000000050000330000001N251022000000000000000170511220000000000000000000000000000000000000000100082845450478MARGARIDA VICENTE DE ARAUJO             RUA LOURDES GESTEIRA,98                 FREI DAMIAO 59215000NOVA CRUZ      RN                               I42      00 000048
1020769242500015845430981859601300398000000000000000000037176503717658000000 40200000000000000000    000000501000001089805112200000000050000330000001N251022000000000000000170511220000000000000000000000000000000000000000100001507492448MARIA LUCIA DOS SANTOS                  RUA FELIPE CAMARAO,368                  SALGADO     59215000NOVA CRUZ      RN                               I42      00 000049
1020769242500015845430981859601300398000000000000000000036846003684601000000 40200000000000000000    000000501000000020505112200000000050000330000001N251022000000000000000170511220000000000000000000000000000000000000000100005971931423ITALO RENAN DUARTE DAS NEVES            ANTONIO GALDINO DA COSTA,301            NOVA ESPER  59215000NOVA CRUZ      RN                               I42      00 000050
1020769242500015845430981859601300398000000000000000000036621003662101000000 40200000000000000000    000000501000000631320102200000000050000330000001N250922000000000000000172010220000000000000000000000000000000000000000100070196424461ANDRESSA LINS DE BRITO ESTEVAM          RUA LUIZ PEDRO DA COSTA,95              PLANALTO    59215000NOVA CRUZ      RN                               I42      00 000051
1020769242500015845430981859601300398000000000000000000036928703692876000000 40200000000000000000    000000501000000410505112200000000060000330000001N251022000000000000000200511220000000000000000000000000000000000000000100051556510420JOSEFA SILVEIRA ALEXANDRE               RUA VEREADOR RENATO JOSE DE MELO,20     PLA         59215000NOVA CRUZ      RN                               I42      00 000052
1020769242500015845430981859601300398000000000000000000037119003711900000000 40200000000000000000    000000501000000991605112200000000050000330000001N251022000000000000000170511220000000000000000000000000000000000000000100012301177416HELOISA NOGUEIRA DA SILVA               SITIO LAGOA LIMPA,201                   ZONA RURAL  59215000NOVA CRUZ      RN                               I42      00 000053
1020769242500015845430981859601300398000000000000000000037119103711919000000 40200000000000000000    000000501000000991605112200000000050000330000001N251022000000000000000170511220000000000000000000000000000000000000000100012301177416HELOISA NOGUEIRA DA SILVA               SITIO LAGOA LIMPA,201                   ZONA RURAL  59215000NOVA CRUZ      RN                               I42      00 000054
1020769242500015845430981859601300398000000000000000000036685903668592000000 40200000000000000000    000000501000000844020102200000000050000330000001N250922000000000000000172010220000000000000000000000000000000000000000100001021539490JACKSON FERREIRA DA CRUZ                RUA JOSE ALEXANDRE DA SILVA,327         SANTA M     59215000NOVA CRUZ      RN                               I42      00 000055
1020769242500015845430981859601300398000000000000000000036972803697282000000 40200000000000000000    000000501000000562910112200000000090000330000001N251022000000000000000301011220000000000000000000000000000000000000000100006319800402PATRICIA LEONEL DE ARAUJO               RUA PANTELEAO JUSTINO DE LIMA,186       PLANA       59215000NOVA CRUZ      RN                               I42      00 000056
1020769242500015845430981859601300398000000000000000000036629303662934000000 40200000000000000000    000000501000000657820102200000000060000330000001N250922000000000000000202010220000000000000000000000000000000000000000100070034840486WHENDE DA SILVA CAMELO                  RUA PRIMEIRO DE MAIO,331                SAO SEBASTIA59215000NOVA CRUZ      RN                               I42      00 000057
1020769242500015845430981859601300398000000000000000000037166203716627000000 40200000000000000000    000000501000001074705112200000000060000330000001N251022000000000000000200511220000000000000000000000000000000000000000100002207794490MARIA GORETE DE ARAUJO                  RUA SENADOR GEORGINO AVELINO,245        SAO SE      59215000NOVA CRUZ      RN                               I42      00 000058
1020769242500015845430981859601300398000000000000000000036845803684580000000 40200000000000000000    000000501000000019210112200000000050000330000001N251022000000000000000171011220000000000000000000000000000000000000000100004898427120JOAO FERREIRA DE OLIVEIRA               RUA EXPEDICIONARIO JOSE DE BRITO,625    C           59215000NOVA CRUZ      RN                               I42      00 000059
1020769242500015845430981859601300398000000000000000000036980203698025000000 40200000000000000000    000000501000000589810112200000000050000330000001N251022000000000000000171011220000000000000000000000000000000000000000100051216396434ANTONIO RIBEIRO DA SILVA                TV 2 DE FEVEREIRO,49                    SALGADO     59215000NOVA CRUZ      RN                               I42      00 000060
1020769242500015845430981859601300398000000000000000000036918103691810000000 40200000000000000000    000000501000000361910112200000000050000330000001N251022000000000000000171011220000000000000000000000000000000000000000100059670088453CLODOALDO FREIRE                        RUA JOSE MORAIS DA COSTA,249            PLANALTO    59215000NOVA CRUZ      RN                               I42      00 000061
1020769242500015845430981859601300398000000000000000000037030903703096000000 40200000000000000000    000000501000000764110112200000000050000330000001N251022000000000000000171011220000000000000000000000000000000000000000100004999844478JOAO BATISTA FERNANDES                  RUA CONEGO LUIZ ADOLFO,179              SANTA MARIA 59215000NOVA CRUZ      RN                               I42      00 000062
1020769242500015845430981859601300398000000000000000000036810703681076000000 40200000000000000000    000000501000000217105102200000000070000330000001N250922000000000000000230510220000000000000000000000000000000000000000100003610218444WASHINGTON LUIZ DE OLIVEIRA             AVENIDA NOVA CRUZ,135                   PORTAL DO AG59215000NOVA CRUZ      RN                               I42      00 000063
1020769242500015845430981859601300398000000000000000000036870503687058000000 40200000000000000000    000000501000000116405112200000000060000330000001N251022000000000000000200511220000000000000000000000000000000000000000100030122562453JOAO BORGES DA SILVA                    INDUSTRIAL CORONEL JOSE DE BRITO,920    CO          59215000NOVA CRUZ      RN                               I42      00 000064
1020769242500015845430981859601300398000000000000000000036521503652157000000 40200000000000000000    000000501000000240123102200000000070000330000001N250922000000000000000232310220000000000000000000000000000000000000000100077887670420GILVAN RAMOS DE OLIVEIRA                ALBERTO MARANHAO,116                    SAO SEBASTIA59215000NOVA CRUZ      RN                               I42      00 000065
1020769242500015845430981859601300398000000000000000000036788403678849000000 40200000000000000000    000000501000001062215102200000000050000330000001N250922000000000000000171510220000000000000000000000000000000000000000100091265479453LAILSON MOREIRA DE SOUZA                RUA JOSE MORAIS DA COSTA,267            PLANALTO    59215000NOVA CRUZ      RN                               I42      00 000066
1020769242500015845430981859601300398000000000000000000037075203707520000000 40200000000000000000    000000501000000890810112200000000050000330000001N251022000000000000000171011220000000000000000000000000000000000000000100070858454491MARLUCE LOPES GONCALVES                 RUA CONEGO LUIZ ADOLFO,501              SANTA MARIA 59215000NOVA CRUZ      RN                               I42      00 000067
1020769242500015845430981859601300398000000000000000000036946903694690000000 40200000000000000000    000000501000000474907112200000000050000330000001N251022000000000000000170711220000000000000000000000000000000000000000100033596190487SONIA MARIA DA SILVA PAIVA              RUA JOAO AMARO DE OLIVEIRA,340          SANTA MA    59215000NOVA CRUZ      RN                               I42      00 000068
1020769242500015845430981859601300398000000000000000000037066303706630000000 40200000000000000000    000000501000000867505112200000000050000330000001N251022000000000000000170511220000000000000000000000000000000000000000100015521885404IVANIRA DA SILVA BENEDITO               RUA VEREADOR JOAO SOARES DE OLIVEIRA,14             59215000NOVA CRUZ      RN                               I42      00 000069
1020769242500015845430981859601300398000000000000000000036831603683168000000 40200000000000000000    000000501000000372320102200000000055000330000001N300922000000000000000182010220000000000000000000000000000000000000000100011483128466VANESSA SAIONARA FREITAS FLOR           PRACA ANTONIO BASILIO DE MELO,149       FREI        59215000NOVA CRUZ      RN                               I42      00 000070
1020769242500015845430981859601300398000000000000000000036831703683176000000 40200000000000000000    000000501000000372320102200000000045000330000001N300922000000000000000152010220000000000000000000000000000000000000000100011483128466VANESSA SAIONARA FREITAS FLOR           PRACA ANTONIO BASILIO DE MELO,149       FREI        59215000NOVA CRUZ      RN                               I42      00 000071
1020769242500015845430981859601300398000000000000000000036627303662730000000 40200000000000000000    000000501000000649920102200000000050000330000001N250922000000000000000172010220000000000000000000000000000000000000000100006034244498ANA JULIANA CHACON GOUVEIA              RUA AVELINO PEREIRA DA SILVA,67         ANTONIO     59215000NOVA CRUZ      RN                               I42      00 000072
1020769242500015845430981859601300398000000000000000000036700803670082000000 40200000000000000000    000000501000000882220102200000000065000330000001N250922000000000000000212010220000000000000000000000000000000000000000100005872489471MARCIA DE ALMEIDA SILVA                 RUA JOSE ALEXANDRE DA SILVA,425         NOVA ES     59215000NOVA CRUZ      RN                               I42      00 000073
1020769242500015845430981859601300398000000000000000000036974703697479000000 40200000000000000000    000000501000000571205112200000000050000330000001N251022000000000000000170511220000000000000000000000000000000000000000100009190407482JOELMA RUFINO DA COSTA                  RUA MANOEL DIAS DA SILVA,150            PLANALTO    59215000NOVA CRUZ      RN                               I42      00 000074
1020769242500015845430981859601300398000000000000000000037210203721027000000 40200000000000000000    000000501000000571208112200000000040000330000001N051122000000000000000130811220000000000000000000000000000000000000000100009190407482JOELMA RUFINO DA COSTA                  RUA MANOEL DIAS DA SILVA,150            PLANALTO    59215000NOVA CRUZ      RN                               I42      00 000075
1020769242500015845430981859601300398000000000000000000037057803705781000000 40200000000000000000    000000501000000847210112200000000050000330000001N251022000000000000000171011220000000000000000000000000000000000000000100070773359419THAMYRES DA SILVA ALMEIDA               RUA FRANCISCO CORDEIRO DO VALE,606      PLAN        59215000NOVA CRUZ      RN                               I42      00 000076
1020769242500015845430981859601300398000000000000000000036856603685667000000 40200000000000000000    000000501000000053810112200000000070000330000001N251022000000000000000231011220000000000000000000000000000000000000000100000831855428MARIA DAS GRACAS FELIPE DA SILVA SOUSA  PRACA GETULIO VARGAS,76                 CENTRO      59255000SANTO ANTôNIO RN                               I42      00 000077
1020769242500015845430981859601300398000000000000000000036887503688755000000 40200000000000000000    000000501000000214620112200000000050000330000001N251022000000000000000172011220000000000000000000000000000000000000000100007449664429MARIANA BEATRIZ POMPEU DA SILVA         RUA SANTO ANTONIO,263                   PORTAL      59215000NOVA CRUZ      RN                               I42      00 000078
1020769242500015845430981859601300398000000000000000000036483803648389000000 40200000000000000000    000000501000000044720102200000000100000330000001N250922000000000000000332010220000000000000000000000000000000000000000100013019619491MARCELO LISBOA DA CUNHA LIMA            RUA DIOGENES DA CUNHA LIMA,23           CENTRO      59215000NOVA CRUZ      RN                               I42      00 000079
1020769242500015845430981859601300398000000000000000000037056203705625000000 40200000000000000000    000000501000000842110112200000000050000330000001N251022000000000000000171011220000000000000000000000000000000000000000100041426541449GENILDO PEDRO DA SILVA                  RUA JOAO BALBINO,48                     VISTA DO SOL59215000NOVA CRUZ      RN                               I42      00 000080
1020769242500015845430981859601300398000000000000000000037161603716163000000 40200000000000000000    000000501000001068510112200000000055000330000001N251022000000000000000181011220000000000000000000000000000000000000000100089791622434EDSON BALDUINO BISPO                    SITIO BOQUEIRAOBAIXO,000                ZONA RURAL  59215000NOVA CRUZ      RN                               I42      00 000081
1020769242500015845430981859601300398000000000000000000036778803677885000000 40200000000000000000    000000501000001047520102200000000050000330000001N250922000000000000000172010220000000000000000000000000000000000000000100070683456466MAISA DA SILVA VICENTE                  SITIO LAGOA LIMPA,51                    ZONA RURAL  59215000NOVA CRUZ      RN                               I42      00 000082
1020769242500015845430981859601300398000000000000000000036903803690385000000 40200000000000000000    000000501000000293205112200000000050000330000001N251022000000000000000170511220000000000000000000000000000000000000000100007002250485ANTONIA RIBEIRO DA SILVA                SENADOR GEORGINO AVELINO,940            FREI DAMIA  59215000NOVA CRUZ      RN                               I42      00 000083
1020769242500015845430981859601300398000000000000000000036914903691497000000 40200000000000000000    000000501000000347307112200000000050000330000001N251022000000000000000170711220000000000000000000000000000000000000000100031552102491GILZA DA SILVA                          RUA FELIPE CAMARAO,426                  SAO JUDAS TA59215000NOVA CRUZ      RN                               I42      00 000084
1020769242500015845430981859601300398000000000000000000036557103655717000000 40200000000000000000    000000501000000407220102200000000050000330000001N250922000000000000000172010220000000000000000000000000000000000000000100001734685433PAULO WITTOR DOMINGOS DA SILVA          RUA 31 DE MARCO,178                     CENTRO      59215000NOVA CRUZ      RN                               I42      00 000085
1020769242500015845430981859601300398000000000000000000037106703710670000000 40200000000000000000    000000501000000965710112200000000050000330000001N251022000000000000000171011220000000000000000000000000000000000000000100077367790315FRANCISCO RODRIGUES DE FARIAS           RUA NOVA DESCOBERTA,0                   CAMPO NOVO  59215000NOVA CRUZ      RN                               I42      00 000086
1020769242500015845430981859601300398000000000000000000037203703720373000000 40200000000000000000    000000501000001101920112200000000020000330000001N261022000000000000000072011220000000000000000000000000000000000000000100009617243407MARIA DAS DORES SOARES                  RUA VEREADOR JOSE ABILIO DA SILVA,361   S           59215000NOVA CRUZ      RN                               I42      00 000087
1020769242500015845430981859601300398000000000000000000037210303721035000000 40200000000000000000    000000501000001105910122200000000077000330000001N071122000000000000000251012220000000000000000000000000000000000000000100012004676477JULIANA LAISE SILVA BARBOSA             RUA VEREADOR PEDRO TAVARES SOBRINHO,121             59215000NOVA CRUZ      RN                               I42      00 000088
1020769242500015845430981859601300398000000000000000000036814903681491000000 40200000000000000000    000000501000000475715102200000000050000330000001N250922000000000000000171510220000000000000000000000000000000000000000100006904786400TIAGO PEDRO DA SILVA                    RUA FRANCISCO CAETANO FILHO,176         CIDADE      59215000NOVA CRUZ      RN                               I42      00 000089
1020769242500015845430981859601300398000000000000000000036997203699722000000 40200000000000000000    000000501000000645620112200000000060000330000001N251022000000000000000202011220000000000000000000000000000000000000000100001182532470LINDACI DO NASCIMENTO                   RUA ASSIS CHATEAUBRIAND,146                         59215000NOVA CRUZ      RN                               I42      00 000090
1020769242500015845430981859601300398000000000000000000037210403721043000000 40200000000000000000    000000501000000645620112200000000050000330000001N071122000000000000000172011220000000000000000000000000000000000000000100001182532470LINDACI DO NASCIMENTO                   RUA ASSIS CHATEAUBRIAND,146                         59215000NOVA CRUZ      RN                               I42      00 000091
1020769242500015845430981859601300398000000000000000000036625903662594000000 40200000000000000000    000000501000000645620102200000000050000330000001N250922000000000000000172010220000000000000000000000000000000000000000100001182532470LINDACI DO NASCIMENTO                   RUA ASSIS CHATEAUBRIAND,146                         59215000NOVA CRUZ      RN                               I42      00 000092
1020769242500015845430981859601300398000000000000000000036646303664635000000 40200000000000000000    000000501000000716920102200000000050000330000001N250922000000000000000172010220000000000000000000000000000000000000000100012589962436EDILENE ALVES DA SILVA                  RUA LUIZ PEREIRA,110                    SANTA MARIA 59215000NOVA CRUZ      RN                               I42      00 000093
1020769242500015845430981859601300398000000000000000000037108203710823000000 40200000000000000000    000000501000000970710112200000000050000330000001N251022000000000000000171011220000000000000000000000000000000000000000100070636194469RAFAELA GOMES DE CARVALHO               RUA DOUTOR MARIO NEGOCIO,0              SAO SEBASTIA59215000NOVA CRUZ      RN                               I42      00 000094
1020769242500015845430981859601300398000000000000000000036741903674193000000 40200000000000000000    000000501000000978310102200000000050000330000001N250922000000000000000171010220000000000000000000000000000000000000000100004897462410MARIA DE LOURDES DE LIMA SILVA          RUA EURICO SILVEIRA BORGES,06           CIDADE DO   59215000NOVA CRUZ      RN                               I42      00 000095
1020769242500015845430981859601300398000000000000000000037001603700160000000 40200000000000000000    000000501000000660207112200000000050000330000001N251022000000000000000170711220000000000000000000000000000000000000000100003028779404ANTONIO SEVERINO DA COSTA               RUA SEVERINO AUGUSTO DE MORAIS,SN       VIST        59215000NOVA CRUZ      RN                               I42      00 000096
1020769242500015845430981859601300398000000000000000000036919003691900000000 40200000000000000000    000000501000000366407112200000000050000330000001N251022000000000000000170711220000000000000000000000000000000000000000100009163748401GILVAN VICENTE DOS SANTOS               RUA JOAO GOUVEIA DA SILVA,126           CIDADE DO   59215000NOVA CRUZ      RN                               I42      00 000097
1020769242500015845430981859601300398000000000000000000037072603707261000000 40200000000000000000    000000501000000883910112200000000060000330000001N251022000000000000000201011220000000000000000000000000000000000000000100003525272421SEVERINO FELIX DA SILVA                 RUA DA PALHA,0                          NOVA DESCOBE59215000NOVA CRUZ      RN                               I42      00 000098
1020769242500015845430981859601300398000000000000000000037210503721051000000 40200000000000000000    000000501000001104720122200000000086000330000001N071122000000000000000282012220000000000000000000000000000000000000000100070640949401LUANA KETNA DOS SANTOS                  RUA CARLOS MATOS,07                     FREI DAMIAO 59215000NOVA CRUZ      RN                               I42      00 000099
1020769242500015845430981859601300398000000000000000000037094103709418000000 40200000000000000000    000000501000000937410112200000000050000330000001N251022000000000000000171011220000000000000000000000000000000000000000100007236420441IVANALDO PEREIRA DA SILVA               RUA GERALDO PEIXOTO MARIANO,71          PLANALTO    59215000NOVA CRUZ      RN                               I42      00 000100
1020769242500015845430981859601300398000000000000000000037210603721060000000 40200000000000000000    000000501000001105310122200000000066000330000001N071122000000000000000221012220000000000000000000000000000000000000000100031342490819DJANI TARGINO                           RUA DA PALHA,00                         VILA NOVA DE59215000NOVA CRUZ      RN                               I42      00 000101
1020769242500015845430981859601300398000000000000000000036667203666727000000 40200000000000000000    000000501000000789020102200000000050000330000001N250922000000000000000172010220000000000000000000000000000000000000000100002946692485MARIA EDILEUZA ALVES DA SILVA           RUA PREFEITO SEVERINO AUGUSTO DE MORAIS             59215000NOVA CRUZ      RN                               I42      00 000102
1020769242500015845430981859601300398000000000000000000037037603703762000000 40200000000000000000    000000501000000787815112200000000050000330000001N251022000000000000000171511220000000000000000000000000000000000000000100001174855436FERNANDO LUIZ DA SILVA                  RUA CONEGO SEVERINO RAMALHO,542         SALGADO     59215000NOVA CRUZ      RN                               I42      00 000103
1020769242500015845430981859601300398000000000000000000037068203706826000000 40200000000000000000    000000501000000873607112200000000050000330000001N251022000000000000000170711220000000000000000000000000000000000000000100069552657415ELIAS JOSE BENEDITO                     RUA VEREADOR PEDRO TAVARES SOBRINHO,149             59215000NOVA CRUZ      RN                               I42      00 000104
1020769242500015845430981859601300398000000000000000000036980303698033000000 40200000000000000000    000000501000000590107112200000000050000330000001N251022000000000000000170711220000000000000000000000000000000000000000100001018762469MARIA DA PIEDADE DE OLIVEIRA SANTOS     RUA JOAO AMARO DE OLIVEIRA,18           SANTA MAR   59215000NOVA CRUZ      RN                               I42      00 000105
1020769242500015845430981859601300398000000000000000000037177003717704000000 40200000000000000000    000000501000001090307112200000000050000330000001N251022000000000000000170711220000000000000000000000000000000000000000100071410697479AMANDA SANTANA DA COSTA                 RUA EURICO SILVEIRA BORGES,79           CIDADE DO   59215000NOVA CRUZ      RN                               I42      00 000106
1020769242500015845430981859601300398000000000000000000037154603715469000000 40200000000000000000    000000501000001057610112200000000050000330000001N251022000000000000000171011220000000000000000000000000000000000000000100014599582840JUBERLITA BORGES DE MORAIS              RUA JOAO BALBINO,00                     VISTA DO SOL59215000NOVA CRUZ      RN                               I42      00 000107
1020769242500015845430981859601300398000000000000000000036790503679055000000 40200000000000000000    000000501000001065520102200000000055000330000001N250922000000000000000182010220000000000000000000000000000000000000000100010649911490ALEXANDRE HERMENEGILDO DA SILVA         SITIO BARBACO,07                        ZONA RURAL  59215000NOVA CRUZ      RN                               I42      00 000108
1020769242500015845430981859601300398000000000000000000037210703721078000000 40200000000000000000    000000501000001106220122200000000100330330000001N071122000000000000000332012220000000000000000000000000000000000000000100006556742414LEANDRO DIAS MOURA                      RUA MANOEL EUFRASIO DA SILVA,83         FREI DA     59215000NOVA CRUZ      RN                               I42      00 000109
1020769242500015845430981859601300398000000000000000000036956103695611000000 40200000000000000000    000000501000000502410112200000000050000330000001N251022000000000000000171011220000000000000000000000000000000000000000100070077611438MARIA JOSE SOARES DOS SANTOS            RUA GERALDO PEIXOTO MARIANO,103         PLANALT     59215000NOVA CRUZ      RN                               I42      00 000110
1020769242500015845430981859601300398000000000000000000036590003659003000000 40200000000000000000    000000501000000518420102200000000050000330000001N250922000000000000000172010220000000000000000000000000000000000000000100001788946480FERNANDA CASSIANA CHACON COSTA          RUA AVELINO PEREIRA DA SILVA,0          ANTONIO     59215000NOVA CRUZ      RN                               I42      00 000111
1020769242500015845430981859601300398000000000000000000037057103705714000000 40200000000000000000    000000501000000845707112200000000050000330000001N251022000000000000000170711220000000000000000000000000000000000000000100001719739412CRISTINA MARCILIO DA SILVA GOMES        RUA LOURDES GESTEIRA,21                 FREI DAMIAO 59215000NOVA CRUZ      RN                               I42      00 000112
1020769242500015845430981859601300398000000000000000000036831503683150000000 40200000000000000000    000000501000000372310102200000000065000330000001N300922000000000000000211010220000000000000000000000000000000000000000100011483128466VANESSA SAIONARA FREITAS FLOR           PRACA ANTONIO BASILIO DE MELO,149       FREI        59215000NOVA CRUZ      RN                               I42      00 000113
1020769242500015845430981859601300398000000000000000000037194803719480000000 40200000000000000000    000000501000000875607112200000000050000330000001N251022000000000000000170711220000000000000000000000000000000000000000100063214334700JOSE VIANA                              RUA VEREADOR JOAO PIMENTA DE MELO,269   F           59215000NOVA CRUZ      RN                               I42      00 000114
1020769242500015845430981859601300398000000000000000000036698003669807000000 40200000000000000000    000000501000000875605102200000000050000330000001N250922000000000000000170510220000000000000000000000000000000000000000100063214334700JOSE VIANA                              RUA VEREADOR JOAO PIMENTA DE MELO,269   F           59215000NOVA CRUZ      RN                               I42      00 000115
1020769242500015845430981859601300398000000000000000000036970203697029000000 40200000000000000000    000000501000000554507112200000000050000330000001N251022000000000000000170711220000000000000000000000000000000000000000100004016079411ROBERTA ALVES DE ARAUJO                 AVENIDA FORTUNATO JOSE GONCALVES,1184   A           59215000NOVA CRUZ      RN                               I42      00 000116
1020769242500015845430981859601300398000000000000000000036991603699161000000 40200000000000000000    000000501000000629207112200000000050000330000001N251022000000000000000170711220000000000000000000000000000000000000000100003204229416MARCOS ANTONIO DE LIMA                  RUA DR PEDRO VELHO,140                  CENTRO      59215000NOVA CRUZ      RN                               I42      00 000117
1020769242500015845430981859601300398000000000000000000036622103662217000000 40200000000000000000    000000501000000634320102200000000050000330000001N250922000000000000000172010220000000000000000000000000000000000000000100006557478427ANA PAULA JACINTO FERREIRA              RUA PRIMEIRO DE JANEIRO,225                         59215000NOVA CRUZ      RN                               I42      00 000118
1020769242500015845430981859601300398000000000000000000036499203649920000000 40200000000000000000    000000501000000115920102200000000100000330000001N250922000000000000000332010220000000000000000000000000000000000000000100008179559416ANA CARLA DA COSTA GOMES                LUIZ PEDRO DA COSTA,153                 PLANALTO    59215000NOVA CRUZ      RN                               I42      00 000119
1020769242500015845430981859601300398000000000000000000037080403708047000000 40200000000000000000    000000501000000903805112200000000060000330000001N251022000000000000000200511220000000000000000000000000000000000000000100070912810475GEISIANE DA COSTA TORQUATO              SITIO CATOLE,0                          ZONA RURAL  59215000NOVA CRUZ      RN                               I42      00 000120
1020769242500015845430981859601300398000000000000000000036617603661768000000 40200000000000000000    000000501000000620420102200000000050000330000001N250922000000000000000172010220000000000000000000000000000000000000000100010447595423JANSEN FELIX DOS ANJOS                  RUA ASSIS CHATEAUBRIND,63               SAO SEBASTIA59215000NOVA CRUZ      RN                               I42      00 000121
1020769242500015845430981859601300398000000000000000000036860703686078000000 40200000000000000000    000000501000000070407112200000000050000330000001N251022000000000000000170711220000000000000000000000000000000000000000100043031536487JOSEMAR MORAIS DE LIMA                  FRANCISCO LINS DE ALBUQUERQUE,25        SAO SE      59215000NOVA CRUZ      RN                               I42      00 000122
1020769242500015845430981859601300398000000000000000000037107803710785000000 40200000000000000000    000000501000000969907112200000000050000330000001N251022000000000000000170711220000000000000000000000000000000000000000100070833117491LUIZ ANTONIO DOS SANTOS                 RUA SEVERINO MARQUES MOREIRA,40         SAO JUD     59215000NOVA CRUZ      RN                               I42      00 000123
1020769242500015845430981859601300398000000000000000000037075903707598000000 40200000000000000000    000000501000000892610112200000000050000330000001N251022000000000000000171011220000000000000000000000000000000000000000100092803024772JOZETE DOS SANTOS MARQUES               RUA VEREADOR JOSE ANDRE DIAS,360        SALGAD      59215000NOVA CRUZ      RN                               I42      00 000124
1020769242500015845430981859601300398000000000000000000036628803662888000000 40200000000000000000    000000501000000655315102200000000050000330000001N250922000000000000000171510220000000000000000000000000000000000000000100001082296457MARIA DE LOURDES DA CONCEICAO           RUA VEREADOR JOAO SOARES DE OLIVEIRA,20             59215000NOVA CRUZ      RN                               I42      00 000125
1020769242500015845430981859601300398000000000000000000037017403701743000000 40200000000000000000    000000501000000715307112200000000050000330000001N251022000000000000000170711220000000000000000000000000000000000000000100003160333400MARIA DAS DORES DA SILVA                RUA ALBERTO MARANHAO,255                SAO SEBASTIA59215000NOVA CRUZ      RN                               I42      00 000126
1020769242500015845430981859601300398000000000000000000036777203677729000000 40200000000000000000    000000501000001045210102200000000055000330000001N250922000000000000000181010220000000000000000000000000000000000000000100070708098401MARCOS VINICIUS ALEXANDRE DE CARVALHO   SITIO BOQUEIRAO,00                      ZONA RURAL  59215000NOVA CRUZ      RN                               I42      00 000127
1020769242500015845430981859601300398000000000000000000036498403649849000000 40200000000000000000    000000501000000109210102200000000060000330000001N250922000000000000000201010220000000000000000000000000000000000000000100005500344471EWERTON GIOVANI SILVEIRA DA SILVA       TRAVESSA JOSE BONIFACIO,94              SAO SEBASTIA59215000NOVA CRUZ      RN                               I42      00 000128
1020769242500015845430981859601300398000000000000000000036619603661962000000 40200000000000000000    000000501000000626720102200000000070000330000001N250922000000000000000232010220000000000000000000000000000000000000000100009387732401MARIA VILMA CORDEIRO                    RUA VEREADOR RENATO JOSE DE MELO,341    PL          59215000NOVA CRUZ      RN                               I42      00 000129
1020769242500015845430981859601300398000000000000000000037030403703045000000 40200000000000000000    000000501000000762707112200000000060000330000001N251022000000000000000200711220000000000000000000000000000000000000000100070751887471RENATA SABRINA FLOR DE SOUZA            RUA MANOEL VASCONCELOS COSTA,25         SALGADO     59215000NOVA CRUZ      RN                               I42      00 000130
1020769242500015845430981859601300398000000000000000000037109803710980000000 40200000000000000000    000000501000000974410112200000000060000330000001N251022000000000000000201011220000000000000000000000000000000000000000100065158318468SOLANGE DA SILVA MENDES                 RUA PROFESSOR REGINALDO DE OLIVEIRA,71              59215000NOVA CRUZ      RN                               I42      00 000131
1020769242500015845430981859601300398000000000000000000037198003719804000000 40200000000000000000    000000501000000997007112200000000050000330000001N251022000000000000000170711220000000000000000000000000000000000000000100006438627496ERICA PATRICIA DA SILVA                 RUA JOACI MARTINS DE LIMA,0                         59215000NOVA CRUZ      RN                               I42      00 000132
1020769242500015845430981859601300398000000000000000000036700403670040000000 40200000000000000000    000000501000000881320102200000000060000330000001N250922000000000000000202010220000000000000000000000000000000000000000100017074437859GILSON PAULINO MAIA CARDOSO             RUA DA PALHA,0                          NOVA DESCOBE59215000NOVA CRUZ      RN                               I42      00 000133
1020769242500015845430981859601300398000000000000000000036978303697835000000 40200000000000000000    000000501000000583007112200000000050000330000001N251022000000000000000170711220000000000000000000000000000000000000000100009779223401JAILSON MACARIO DA SILVA                RUA GERALDO PEIXOTO MARIANO,492         PLANALT     59215000NOVA CRUZ      RN                               I42      00 000134
1020769242500015845430981859601300398000000000000000000036863303686337000000 40200000000000000000    000000501000000083307112200000000050000330000001N251022000000000000000170711220000000000000000000000000000000000000000100070410047406RICARDO DOS SANTOS                      DOUTOR GALDINO DE LIMA,331              SANTA LUZIA 59215000NOVA CRUZ      RN                               I42      00 000135
1020769242500015845430981859601300398000000000000000000036599503659950000000 40200000000000000000    000000501000000554820102200000000060000330000001N250922000000000000000202010220000000000000000000000000000000000000000100008198139400JAQUELINE BELISIO DIAS                  RUA PREFEITO SEVERINO AUGUSTO DE MORAIS             59215000NOVA CRUZ      RN                               I42      00 000136
1020769242500015845430981859601300398000000000000000000036756503675653000000 40200000000000000000    000000501000001006420102200000000055000330000001N250922000000000000000182010220000000000000000000000000000000000000000100004939396444ANGELA MARIA DA SILVA COUTINHO          SITIO LAGOA DO COURO,300                ZONA ZURAL  59215000NOVA CRUZ      RN                               I42      00 000137
1020769242500015845430981859601300398000000000000000000037131403713148000000 40200000000000000000    000000501000001017607112200000000055000330000001N251022000000000000000180711220000000000000000000000000000000000000000100002814182412EDNALVA ALVES DA SILVA                  SITIO LAGOA DOS CURRAIS,98              ZONA RURAL  59215000NOVA CRUZ      RN                               I42      00 000138
1020769242500015845430981859601300398000000000000000000037068903706893000000 40200000000000000000    000000501000000875807112200000000060000330000001N251022000000000000000200711220000000000000000000000000000000000000000100070457279419GILVAN DA SILVA PEDRO JUNIOR            RUA LOURIVAL MARTINS DOS SANTOS,20      BELA        59215000NOVA CRUZ      RN                               I42      00 000139
1020769242500015845430981859601300398000000000000000000036676503667650000000 40200000000000000000    000000501000000819920102200000000050000330000001N250922000000000000000172010220000000000000000000000000000000000000000100010345562402SIMONE FERNANDES                        RUA PROJETADA,0                         NOVA DESCOBE59215000NOVA CRUZ      RN                               I42      00 000140
1020769242500015845430981859601300398000000000000000000037050303705030000000 40200000000000000000    000000501000000827610112200000000050000330000001N251022000000000000000171011220000000000000000000000000000000000000000100059605871491VERA LUCIA MARIA PEREIRA                RUA JOSE MARQUES MOREIRA,75                         59215000NOVA CRUZ      RN                               I42      00 000141
1020769242500015845430981859601300398000000000000000000036856803685683000000 40200000000000000000    000000501000000055410112200000000050000330000001N251022000000000000000171011220000000000000000000000000000000000000000100091476810478CLAUDIANO RAMOS CLEMENTE                LAURO SOARES,735                        PLANALTO    59215000NOVA CRUZ      RN                               I42      00 000142
1020769242500015845430981859601300398000000000000000000037189003718905000000 40200000000000000000    000000501000000473910112200000000050000330000001N251022000000000000000171011220000000000000000000000000000000000000000100011639006486KALINA FABRICIO SOARES DA SILVA         RUA HERACLITO FERREIRA DE OLIVEIRA,101              59215000NOVA CRUZ      RN                               I42      00 000143
1020769242500015845430981859601300398000000000000000000037151403715140000000 40200000000000000000    000000501000001052605112200000000055000330000001N251022000000000000000180511220000000000000000000000000000000000000000100070744016410FLAVIO LIMA DA SILVA                    SITIO BARBACO DO LEITE,20               ZONA RURAL  59215000NOVA CRUZ      RN                               I42      00 000144
1020769242500015845430981859601300398000000000000000000037151503715159000000 40200000000000000000    000000501000001052707112200000000050000330000001N251022000000000000000170711220000000000000000000000000000000000000000100077886887468JOSE GOMES DE OLIVEIRA                  RUA SEVERINO AUGUSTO DE MORAIS,312      PLAN        59215000NOVA CRUZ      RN                               I42      00 000145
1020769242500015845430981859601300398000000000000000000036899703689972000000 40200000000000000000    000000501000000275710112200000000050000330000001N251022000000000000000171011220000000000000000000000000000000000000000100044163231404UMBERTO ALVES DE CARVALHO               SITIO CATOLE,13                         ZONA RURAL  59215000NOVA CRUZ      RN                               I42      00 000146
1020769242500015845430981859601300398000000000000000000036830303683036000000 40200000000000000000    000000501000001067520102200000000070000330000001N290922000000000000000232010220000000000000000000000000000000000000000100081247516415EDSON PESSOA DE SOUZA                   RUA ANTONIO BASILIO DE MELO,72          FREI DAM    59215000NOVA CRUZ      RN                               I42      00 000147
1020769242500015845430981859601300398000000000000000000036593803659380000000 40200000000000000000    000000501000000534920102200000000050000330000001N250922000000000000000172010220000000000000000000000000000000000000000100011639470409ANDRIELI DA SILVA SANTOS                RUA LUIZ DE FRANCA VARELA,133           SANTA MAR   59215000NOVA CRUZ      RN                               I42      00 000148
1020769242500015845430981859601300398000000000000000000037037303703738000000 40200000000000000000    000000501000000787107112200000000050000330000001N251022000000000000000170711220000000000000000000000000000000000000000100011061376478REINALDO DE LIMA SILVA                  RUA VEREADOR JOSE ABILIO DA SILVA,355   S           59215000NOVA CRUZ      RN                               I42      00 000149
1020769242500015845430981859601300398000000000000000000036778503677850000000 40200000000000000000    000000501000001047020102200000000050000330000001N250922000000000000000172010220000000000000000000000000000000000000000100065106547415AURINEIDE DOS SANTOS                    RUA VEREADOR JOSE ABILIO DA SILVA,57    SA          59215000NOVA CRUZ      RN                               I42      00 000150
1020769242500015845430981859601300398000000000000000000037011103701115000000 40200000000000000000    000000501000000691707112200000000055000330000001N251022000000000000000180711220000000000000000000000000000000000000000100006206396444JHONE ALISSON GALVAO DA SILVA           SITIO CATOLE,0                          ZONA RURAL  59215000NOVA CRUZ      RN                               I42      00 000151
1020769242500015845430981859601300398000000000000000000036477903647790000000 40200000000000000000    000000501000000028515102200000000050000330000001N250922000000000000000171510220000000000000000000000000000000000000000100007700570477NUNO LEAL DE SOUZA SILVA                RUA JOAO GOUVEIA,131                    CONJUNTO IPE59215000NOVA CRUZ      RN                               I42      00 000152
1020769242500015845430981859601300398000000000000000000037127503712753000000 40200000000000000000    000000501000001008007112200000000020000330000001N251022000000000000000070711220000000000000000000000000000000000000000100071201891400RUTH JULIAO DE LIMA                     SITIO LAGOA DO COURO,96                 ZONA RURAL  59215000NOVA CRUZ      RN                               I42      00 000153
1020769242500015845430981859601300398000000000000000000037039703703975000000 40200000000000000000    000000501000000796205112200000000060000330000001N251022000000000000000200511220000000000000000000000000000000000000000100004963882400CLAUDIO DE SOUZA OLIVEIRA               RUA FORTUNATO JOSE GONCALVES,1104       FREI        59215000NOVA CRUZ      RN                               I42      00 000154
1020769242500015845430981859601300398000000000000000000037005703700577000000 40200000000000000000    000000501000000672720112200000000050000330000001N251022000000000000000172011220000000000000000000000000000000000000000100001263507441LAERCIO SANTANA DA SILVA                RUA LUIZ PEDRO DA COSTA,147                         59215000NOVA CRUZ      RN                               I42      00 000155
1020769242500015845430981859601300398000000000000000000036924003692400000000 40200000000000000000    000000501000000387210112200000000050000330000001N251022000000000000000171011220000000000000000000000000000000000000000100031805302434EDMILSON NOGUEIRA DA SILVA              RUA SEBASTIAO MENEZES,135               SAO SEBASTIA59215000NOVA CRUZ      RN                               I42      00 000156
1020769242500015845430981859601300398000000000000000000036591503659151000000 40200000000000000000    000000501000000523520102200000000060000330000001N250922000000000000000202010220000000000000000000000000000000000000000100070720938422NATHALIA DE OLIVEIRA PEQUENO            OSCAR FIRMINO DE MEDEIROS,02            CENTRO      59215000NOVA CRUZ      RN                               I42      00 000157
1020769242500015845430981859601300398000000000000000000036817203681726000000 40200000000000000000    000000501000000639505102200000000050000330000001N250922000000000000000170510220000000000000000000000000000000000000000100041313089400FRANCISCA FERNANDES DE LIMA             RUA SEVERINO NUNES,115                  FREI DAMIAO 59215000NOVA CRUZ      RN                               I42      00 000158
1020769242500015845430981859601300398000000000000000000037110003711005000000 40200000000000000000    000000501000000974707112200000000055000330000001N251022000000000000000180711220000000000000000000000000000000000000000100094226385420MARINALVA DAMIAO DOS SANTOS             SITIO LAPA,0                            ZONA RURAL  59215000NOVA CRUZ      RN                               I42      00 000159
1020769242500015845430981859601300398000000000000000000037046003704602000000 40200000000000000000    000000501000000816007112200000000050000330000001N251022000000000000000170711220000000000000000000000000000000000000000100006096086497MARIA DAS GRACAS DE ARAUJO              RUA JOAO DA MATA,10                     SAO SEBASTIA59215000NOVA CRUZ      RN                               I42      00 000160
1020769242500015845430981859601300398000000000000000000037177603717763000000 40200000000000000000    000000501000001091207112200000000050000330000001N251022000000000000000170711220000000000000000000000000000000000000000100079209661400LINDALVA ALVES SILVA DA FONSECA         RUA PROFESSOR JOSEPIO DE ALMEIDA DUARTE             59215000NOVA CRUZ      RN                               I42      00 000161
1020769242500015845430981859601300398000000000000000000037035303703533000000 40200000000000000000    000000501000000780510112200000000050000330000001N251022000000000000000171011220000000000000000000000000000000000000000100006389696469DAVI FERREIRA GALVAO                    RUA SENADOR GEORGINO AVELINO,415        SAO SE      59215000NOVA CRUZ      RN                               I42      00 000162
1020769242500015845430981859601300398000000000000000000036932703693279000000 40200000000000000000    000000501000000425110112200000000070000330000001N251022000000000000000231011220000000000000000000000000000000000000000100010273822403IZAIAS MALHEIRO DE OLIVEIRA             AV ANA SOARES DA SILVA,276              NOVA DESCOBE58254000LOGRADOURO     PB                               I42      00 000163
1020769242500015845430981859601300398000000000000000000036656203665623000000 40200000000000000000    000000501000000752120102200000000050000330000001N250922000000000000000172010220000000000000000000000000000000000000000100006904743425JOSILENE DE SOUTO DA SILVA              RUA ODILON SEVERINO DA CUNHA,26         CIDADE      59215000NOVA CRUZ      RN                               I42      00 000164
1020769242500015845430981859601300398000000000000000000037143303714330000000 40200000000000000000    000000501000001039710112200000000070000330000001N251022000000000000000231011220000000000000000000000000000000000000000100005734755559EDLAR EMANOELA DA COSTA LEANDRO         RUA JOSE MORAIS DA COSTA,131            PLANALTO    59215000NOVA CRUZ      RN                               I42      00 000165
1020769242500015845430981859601300398000000000000000000037162503716252000000 40200000000000000000    000000501000001069807112200000000055000330000001N251022000000000000000180711220000000000000000000000000000000000000000100046561960459ANTONIO JACINTO DA SILVA                SITIO LAJEIRO DA ONCA,43                ZONA RURAL  59215000NOVA CRUZ      RN                               I42      00 000166
1020769242500015845430981859601300398000000000000000000036939903693996000000 40200000000000000000    000000501000000449710112200000000050000330000001N251022000000000000000171011220000000000000000000000000000000000000000100005526943470LEANDRO DOS SANTOS PINHEIRO             RUA PRIMEIRO DE MAIO,1035               SAO SEBASTIA59215000NOVA CRUZ      RN                               I42      00 000167
1020769242500015845430981859601300398000000000000000000036928403692841000000 40200000000000000000    000000501000000409607112200000000070000330000001N251022000000000000000230711220000000000000000000000000000000000000000100004942240450PATRICIA DANIELLY DA COSTA E SILVA PERE RUA CARLOS ALEXANDRE,40                 NOVA ESPERAN59215000NOVA CRUZ      RN                               I42      00 000168
1020769242500015845430981859601300398000000000000000000036945703694577000000 40200000000000000000    000000501000000471310112200000000060000330000001N251022000000000000000201011220000000000000000000000000000000000000000100001301816418IVONETE DOS SANTOS                      RUA CARLOS ALEXANDRE,82                 FREI DAMIAO 59215000NOVA CRUZ      RN                               I42      00 000169
1020769242500015845430981859601300398000000000000000000036771903677192000000 40200000000000000000    000000501000001035520102200000000070000330000001N250922000000000000000232010220000000000000000000000000000000000000000100070532631420ALESSANDRA LIMA DE OLIVEIRA             RUA DOUTOR GALDINO LIMA,169                         59215000NOVA CRUZ      RN                               I42      00 000170
1020769242500015845430981859601300398000000000000000000036494503649458000000 40200000000000000000    000000501000000091617102200000000050000330000001N250922000000000000000171710220000000000000000000000000000000000000000100004177617407LAERCIO CLEMENTINO DE LIMA              RUA 31 DE MARCO,192                     CENTRO      59215000NOVA CRUZ      RN                               I42      00 000171
1020769242500015845430981859601300398000000000000000000036570203657027000000 40200000000000000000    000000501000000454310102200000000050000330000001N250922000000000000000171010220000000000000000000000000000000000000000100006858896457JODEILTON RODRIGUES DA SILVA            RUA EXPEDIONARIO ALCIDES LIMA DA CRUZ,3             59215000NOVA CRUZ      RN                               I42      00 000172
1020769242500015845430981859601300398000000000000000000036892803689280000000 40200000000000000000    000000501000000241307112200000000060000330000001N251022000000000000000200711220000000000000000000000000000000000000000100005029887466ALINY KALIANE JUSTINO DE SOUSA          PROFESSOR LEONOR ROCHA,117              PROX. A CASA59215000NOVA CRUZ      RN                               I42      00 000173
1020769242500015845430981859601300398000000000000000000036998203699820000000 40200000000000000000    000000501000000648910112200000000050000330000001N251022000000000000000171011220000000000000000000000000000000000000000100012111172430IASMIM LARISSA ALVES DA SILVA           RUA PROFESSOR MARIO PINOTE,960          ALTO DAS    59215000NOVA CRUZ      RN                               I42      00 000174
1020769242500015845430981859601300398000000000000000000037034003703401000000 40200000000000000000    000000501000000774407112200000000050000330000001N251022000000000000000170711220000000000000000000000000000000000000000100056536780400MARIA VALDILEIDE DA SILVA LIMA          RUA VEREADOR JOAO PIMENTA DE MELO,381   F           59215000NOVA CRUZ      RN                               I42      00 000175
1020769242500015845430981859601300398000000000000000000036524503652459000000 40200000000000000000    000000501000000253719102200000000050000330000001N250922000000000000000171910220000000000000000000000000000000000000000100096675195468HERMANO GENUINO                         PROFESSOR LEONOR ROCHA,66               CENTRO      59215000NOVA CRUZ      RN                               I42      00 000176
1020769242500015845430981859601300398000000000000000000036917903691799000000 40200000000000000000    000000501000000360907112200000000070000330000001N251022000000000000000230711220000000000000000000000000000000000000000100056714092415SEBASTIANA GOMES NEVES DA SILVA         RUA JOAO LUCIO DE CARVALHO,121          SAO SEBA    59215000NOVA CRUZ      RN                               I42      00 000177
1020769242500015845430981859601300398000000000000000000036963603696367000000 40200000000000000000    000000501000000530010112200000000050000330000001N251022000000000000000171011220000000000000000000000000000000000000000100002833248482MARCONI DE LIMA DA SILVA                RUA VEREADOR JOAO SOARES DE OLIVEIRA,11             59215000NOVA CRUZ      RN                               I42      00 000178
1020769242500015845430981859601300398000000000000000000037006103700615000000 40200000000000000000    000000501000000673407112200000000050000330000001N251022000000000000000170711220000000000000000000000000000000000000000100070525492470THALIA DE LIMA MIGUEL                   RUA ANTONIO PEIXOTO MARIANO,95          SAO SEBA    59215000NOVA CRUZ      RN                               I42      00 000179
1020769242500015845430981859601300398000000000000000000036819303681939000000 40200000000000000000    000000501000000794105102200000000050000330000001N250922000000000000000170510220000000000000000000000000000000000000000100094227373468MIRIAM FERREIRA DA SILVA                RUA PEDRO TAVARES SOBRINHO,53           FREI DAMI   59215000NOVA CRUZ      RN                               I42      00 000180
1020769242500015845430981859601300398000000000000000000036968903696898000000 40200000000000000000    000000501000000550020112200000000050000330000001N251022000000000000000172011220000000000000000000000000000000000000000100006404334488EVERALDO LINDOLFO DA SILVA              RUA DA PALHA,0                          NOVA DESCOBE59215000NOVA CRUZ      RN                               I42      00 000181
1020769242500015845430981859601300398000000000000000000036598003659801000000 40200000000000000000    000000501000000550020102200000000050000330000001N250922000000000000000172010220000000000000000000000000000000000000000100006404334488EVERALDO LINDOLFO DA SILVA              RUA DA PALHA,0                          NOVA DESCOBE59215000NOVA CRUZ      RN                               I42      00 000182
1020769242500015845430981859601300398000000000000000000036693903669394000000 40200000000000000000    000000501000000863220102200000000050000330000001N250922000000000000000172010220000000000000000000000000000000000000000100029160499400MARIA DO SOCORRO DA SILVA COSTA         RUA JOSEFA SOARES DA SILVA,23           PLANALTO    59215000NOVA CRUZ      RN                               I42      00 000183
1020769242500015845430981859601300398000000000000000000037133903713393000000 40200000000000000000    000000501000001021510112200000000050000330000001N251022000000000000000171011220000000000000000000000000000000000000000100003156635456ISAIAS MOREIRA DO NASCIMENTO            RUA CORONEL LUIZ MOREIRA,96                         59215000NOVA CRUZ      RN                               I42      00 000184
1020769242500015845430981859601300398000000000000000000037033003703304000000 40200000000000000000    000000501000000770007112200000000070000330000001N251022000000000000000230711220000000000000000000000000000000000000000100001267599448LUIZ ANTONIO MARIANO DE AGUIAR          TRAVESSA CONEGO SEVERINO RAMALHO,0      CENT        59215000NOVA CRUZ      RN                               I42      00 000185
1020769242500015845430981859601300398000000000000000000036972303697231000000 40200000000000000000    000000501000000561210112200000000060000330000001N251022000000000000000201011220000000000000000000000000000000000000000100033458761837MAXWELL DOS SANTOS SILVA                RUA PROFESSOR MANOEL DIAS DA SILVA,14   P           59215000NOVA CRUZ      RN                               I42      00 000186
1020769242500015845430981859601300398000000000000000000036712403671240000000 40200000000000000000    000000501000000912515102200000000050000330000001N250922000000000000000171510220000000000000000000000000000000000000000100039310582472SEVERINA DOS SANTOS DE OLIVEIRA         RUA TENENTE JOSE DE FREITAS,69          FREI DAM    59215000NOVA CRUZ      RN                               I42      00 000187
1020769242500015845430981859601300398000000000000000000036930303693031000000 40200000000000000000    000000501000000415907112200000000060000330000001N251022000000000000000200711220000000000000000000000000000000000000000100003609879408SILVIA SUERDA CORDEIRO DA SILVA         RUA SAO JOAO,123                        SALGADO     59215000NOVA CRUZ      RN                               I42      00 000188
1020769242500015845430981859601300398000000000000000000036986103698610000000 40200000000000000000    000000501000000611610112200000000040000330000001N251022000000000000000131011220000000000000000000000000000000000000000100006515368470MARIA ALBANISA BARBOSA DE CARVALHO      RUA SEVERINO AUGUSTO DE MORAIS,13       PLANA       59215000NOVA CRUZ      RN                               I42      00 000189
1020769242500015845430981859601300398000000000000000000037031803703185000000 40200000000000000000    000000501000000766620112200000000055000330000001N251022000000000000000182011220000000000000000000000000000000000000000100011729194451MARIA GORETE DE OLIVEIRA SILVA          RUA BELA VISTA,12                       CENTRO      59227000LAGOA D'ANTA   RN                               I42      00 000190
1020769242500015845430981859601300398000000000000000000036793803679381000000 40200000000000000000    000000501000001070620102200000000060000330000001N250922000000000000000202010220000000000000000000000000000000000000000100001733004483DAVI TAVARES DA SILVA                   RUA 6 DE JULHO,41                       SAO SEBASTIA59215000NOVA CRUZ      RN                               I42      00 000191
1020769242500015845430981859601300398000000000000000000037074403707440000000 40200000000000000000    000000501000000889610112200000000050000330000001N251022000000000000000171011220000000000000000000000000000000000000000100008092570418ADRIANO ESTEVAM DOS SANTOS              RUA CAMPO SANTO,11                      CENTRO      59215000NOVA CRUZ      RN                               I42      00 000192
1020769242500015845430981859601300398000000000000000000037189203718921000000 40200000000000000000    000000501000000475707112200000000060000330000001N251022000000000000000200711220000000000000000000000000000000000000000100006904786400TIAGO PEDRO DA SILVA                    RUA FRANCISCO CAETANO FILHO,176         CIDADE      59215000NOVA CRUZ      RN                               I42      00 000193
1020769242500015845430981859601300398000000000000000000037082303708233000000 40200000000000000000    000000501000000910807112200000000050000330000001N251022000000000000000170711220000000000000000000000000000000000000000100096674075434WENDEL JORGE DE OLIVEIRA                RUA MANOEL AUGUSTO DE OLIVEIRA,38       SAO S       59215000NOVA CRUZ      RN                               I42      00 000194
1020769242500015845430981859601300398000000000000000000036814003681408000000 40200000000000000000    000000501000000462415102200000000050000330000001N250922000000000000000171510220000000000000000000000000000000000000000100002513590422AURINEIDE SOARES                        RUA VEREADOR SEVERINO ALVES DA SILVA,33             59215000NOVA CRUZ      RN                               I42      00 000195
1020769242500015845430981859601300398000000000000000000036874503687457000000 40200000000000000000    000000501000000143007112200000000060000330000001N251022000000000000000200711220000000000000000000000000000000000000000100096945192415FLAMINIA GOMES BATISTA                  RUA JOAO MENESES,292                    FREI DAMIAO 59215000NOVA CRUZ      RN                               I42      00 000196
1020769242500015845430981859601300398000000000000000000037143103714314000000 40200000000000000000    000000501000001039407112200000000055000330000001N251022000000000000000180711220000000000000000000000000000000000000000100001822840422MARIA JOSE DA SILVA TORRES              SITIO LAGOA DO COURO,00                 ZONA RURAL  59215000NOVA CRUZ      RN                               I42      00 000197
1020769242500015845430981859601300398000000000000000000036729903672999000000 40200000000000000000    000000501000000949920102200000000055000330000001N250922000000000000000182010220000000000000000000000000000000000000000100009333822437GUSTAVO RODRIGUES DE OLIVEIRA           SITIO LAPA,0                            ZONA RURAL  59215000NOVA CRUZ      RN                               I42      00 000198
1020769242500015845430981859601300398000000000000000000037055703705579000000 40200000000000000000    000000501000000841110112200000000060000330000001N251022000000000000000201011220000000000000000000000000000000000000000100070834733404ADAILTON ALEXANDRE DA SILVA             RUA JOAO TOSCANO COELHO,18              CIDADE DO SO59215000NOVA CRUZ      RN                               I42      00 000199
1020769242500015845430981859601300398000000000000000000037055803705587000000 40200000000000000000    000000501000000841110112200000000050000330000001N251022000000000000000171011220000000000000000000000000000000000000000100070834733404ADAILTON ALEXANDRE DA SILVA             RUA JOAO TOSCANO COELHO,18              CIDADE DO SO59215000NOVA CRUZ      RN                               I42      00 000200
1020769242500015845430981859601300398000000000000000000036617103661717000000 40200000000000000000    000000501000000619020102200000000070000330000001N250922000000000000000232010220000000000000000000000000000000000000000100070213667444JESSICA QUILIS DOS SANTOS               RUA PROFESSOR MANOEL ELIAS DA SILVA,SN              59215000NOVA CRUZ      RN                               I42      00 000201
1020769242500015845430981859601300398000000000000000000036973603697363000000 40200000000000000000    000000501000000567607112200000000050000330000001N251022000000000000000170711220000000000000000000000000000000000000000100070564999458KANANDA FELIX CORDEIRO                  RUA JOSE MORAIS DA COSTA,307            PLANALTO    59215000NOVA CRUZ      RN                               I42      00 000202
1020769242500015845430981859601300398000000000000000000037155703715574000000 40200000000000000000    000000501000001059307112200000000050000330000001N251022000000000000000170711220000000000000000000000000000000000000000100001453751459SAYONARA RACHEL OLIMPIO DA SILVA        RUA HILDEBRANDO BARBOSA,72              VISTA DO SOL59215000NOVA CRUZ      RN                               I42      00 000203
1020769242500015845430981859601300398000000000000000000036958103695816000000 40200000000000000000    000000501000000509807112200000000050000330000001N251022000000000000000170711220000000000000000000000000000000000000000100066061784449ERNANDES SOUZA DE OLIVEIRA              RUA ANTONIO PEDRO DA SILVA,02           SANTA MAR   59215000NOVA CRUZ      RN                               I42      00 000204
1020769242500015845430981859601300398000000000000000000037155203715523000000 40200000000000000000    000000501000001058507112200000000055000330000001N251022000000000000000180711220000000000000000000000000000000000000000100002442082470MARIA MARGARETE PEDRO DE SOUZA          SITIO PEDRA TAPADA,533                  ZONA RURAL  59215000NOVA CRUZ      RN                               I42      00 000205
1020769242500015845430981859601300398000000000000000000037003303700330000000 40200000000000000000    000000501000000665010112200000000050000330000001N251022000000000000000171011220000000000000000000000000000000000000000100033644004404MARCO ANTONIO DE OLIVEIRA               SITIO DA LAPA,120                       ZONA RURAL  59215000NOVA CRUZ      RN                               I42      00 000206
1020769242500015845430981859601300398000000000000000000035787503578755000000 40200000000000000000    000000501000000260410082200000000050000330000001N250722000000000000000171008220000000000000000000000000000000000000000100009520170405FABIOLA DA SILVA FERREIRA PESSOA        RUA EXPEDICIONARIO ALCIDES LIMA CRUZ,18             59215000NOVA CRUZ      RN                               I42      00 000207
1020769242500015845430981859601300398000000000000000000036154803615480000000 40200000000000000000    000000501000000260410092200000000050000330000001N250822000000000000000171009220000000000000000000000000000000000000000100009520170405FABIOLA DA SILVA FERREIRA PESSOA        RUA EXPEDICIONARIO ALCIDES LIMA CRUZ,18             59215000NOVA CRUZ      RN                               I42      00 000208
1020769242500015845430981859601300398000000000000000000037169003716902000000 40200000000000000000    000000501000001079707112200000000055000330000001N251022000000000000000180711220000000000000000000000000000000000000000100012437099441MARCELO GALDINO CAMBRAIA                SITIO BUJARI,00                         ZONA RURAL  59215000NOVA CRUZ      RN                               I42      00 000209
1020769242500015845430981859601300398000000000000000000036971903697193000000 40200000000000000000    000000501000000559620112200000000050000330000001N251022000000000000000172011220000000000000000000000000000000000000000100070241084440JURANDIR DA SILVA LIMA                  RUA ADAUTO DE CARVALHO,000              CENTRO      59215000NOVA CRUZ      RN                               I42      00 000210
1020769242500015845430981859601300398000000000000000000037003003700305000000 40200000000000000000    000000501000000664610112200000000050000330000001N251022000000000000000171011220000000000000000000000000000000000000000100001252479409CLEYTON CRUZ NEVES                      RUA PRIMEIRO DE JANEIRO,70              SANTA MARIA 59215000NOVA CRUZ      RN                               I42      00 000211
1020769242500015845430981859601300398000000000000000000037068703706877000000 40200000000000000000    000000501000000875410112200000000038000330000001N251022000000000000000131011220000000000000000000000000000000000000000100065325001434JOAO MARIA DE GOIS                      RUA TRINTA E UM DE MARCO,192            SAO SEBAST  59215000NOVA CRUZ      RN                               I42      00 000212
1020769242500015845430981859601300398000000000000000000037143503714357000000 40200000000000000000    000000501000001039910112200000000050000330000001N251022000000000000000171011220000000000000000000000000000000000000000100009694306477JOELMA SOARES DE MORAIS PEREIRA         RUA CARLOS ALEXANDRE,189                FREI DAMIAO 59215000NOVA CRUZ      RN                               I42      00 000213
1020769242500015845430981859601300398000000000000000000037008203700828000000 40200000000000000000    000000501000000681810112200000000050000330000001N251022000000000000000171011220000000000000000000000000000000000000000100091258561468MARIA LUCIA ALVES DA SILVA              RUA SAO JOSE,120                        SALGADO     59215000NOVA CRUZ      RN                               I42      00 000214
1020769242500015845430981859601300398000000000000000000036512503651258000000 40200000000000000000    000000501000000194320102200000000050000330000001N250922000000000000000172010220000000000000000000000000000000000000000100053785045468ELIETE GOMES SOARES                     JOSE OTAVIANO DE SOUZA,296              SAO SEBASTIA59215000NOVA CRUZ      RN                               I42      00 000215
1020769242500015845430981859601300398000000000000000000036280903628094000000 40200000000000000000    000000501000000730020092200000000060000330000001N250822000000000000000202009220000000000000000000000000000000000000000100027480821840JAILSON LUIS DA SILVA                   RUA MANOEL EUFRASIO DA SILVA,36         FREI DA     59215000NOVA CRUZ      RN                               I42      00 000216
1020769242500015845430981859601300398000000000000000000036832703683273000000 40200000000000000000    000000501000000730020102200000000060000330000001N031022000000000000000202010220000000000000000000000000000000000000000100027480821840JAILSON LUIS DA SILVA                   RUA MANOEL EUFRASIO DA SILVA,36         FREI DA     59215000NOVA CRUZ      RN                               I42      00 000217
1020769242500015845430981859601300398000000000000000000037210903721094000000 40200000000000000000    000000501000000730020112200000000030000330000001N071122000000000000000102011220000000000000000000000000000000000000000100027480821840JAILSON LUIS DA SILVA                   RUA MANOEL EUFRASIO DA SILVA,36         FREI DA     59215000NOVA CRUZ      RN                               I42      00 000218
1020769242500015845430981859601300398000000000000000000036971203697126000000 40200000000000000000    000000501000000558307112200000000050000330000001N251022000000000000000170711220000000000000000000000000000000000000000100046326818818MONIQUE LIRA DOS SANTOS                 RUA DEPUTADO MARCIO MARINHO,50          PLANALTO    59215000NOVA CRUZ      RN                               I42      00 000219
1020769242500015845430981859601300398000000000000000000036616203661628000000 40200000000000000000    000000501000000615320102200000000050000330000001N250922000000000000000172010220000000000000000000000000000000000000000100007399025479MARCIANA BARBOSA DE ARAUJO              TV PROFESSOR REGINALDO DE OLIVEIRA,169              59215000NOVA CRUZ      RN                               I42      00 000220
1020769242500015845430981859601300398000000000000000000036838903683893000000 40200000000000000000    000000501000000911920102200000000050000330000001N141022000000000000000172010220000000000000000000000000000000000000000100010043293425JULIANA DA SILVA OLIVEIRA               RUA PROFESSOR LEONOR ROCHA,129          SALGADO     59215000NOVA CRUZ      RN                               I42      00 000221
1020769242500015845430981859601300398000000000000000000036929103692914000000 40200000000000000000    000000501000000411410112200000000060000330000001N251022000000000000000201011220000000000000000000000000000000000000000100007410666455LUCIENE TARGINO DOS SANTOS              RUA ZILDA LISBOA ARRUDA CAMARA,240      SANT        59215000NOVA CRUZ      RN                               I42      00 000222
1020769242500015845430981859601300398000000000000000000037211003721108000000 40200000000000000000    000000501000000411410112200000000040000330000001N071122000000000000000131011220000000000000000000000000000000000000000100007410666455LUCIENE TARGINO DOS SANTOS              RUA ZILDA LISBOA ARRUDA CAMARA,240      SANT        59215000NOVA CRUZ      RN                               I42      00 000223
1020769242500015845430981859601300398000000000000000000036596403659640000000 40200000000000000000    000000501000000543420102200000000050000330000001N250922000000000000000172010220000000000000000000000000000000000000000100000950464457GERALDO BATISTA DE LIMA                 RUA SENADOR GEORGINO AVELINO,681        PLANAL      59215000NOVA CRUZ      RN                               I42      00 000224
1020769242500015845430981859601300398000000000000000000036619503661954000000 40200000000000000000    000000501000000626320102200000000050000330000001N250922000000000000000172010220000000000000000000000000000000000000000100005759538454CLAUDIA MARIA VICENTE DA SILVA          RUA LUIZ ANTONIO BARBOSA,05                         59215000NOVA CRUZ      RN                               I42      00 000225
1020769242500015845430981859601300398000000000000000000036590203659020000000 40200000000000000000    000000501000000519228102200000000060000330000001N250922000000000000000202810220000000000000000000000000000000000000000100007842323429JARDESON FERREIRA BARBOSA               RUA JORGE FELIPE DA SILVA,25            CENTRO      59215000NOVA CRUZ      RN                               I42      00 000226
1020769242500015845430981859601300398000000000000000000036590303659038000000 40200000000000000000    000000501000000519220102200000000055000330000001N250922000000000000000182010220000000000000000000000000000000000000000100007842323429JARDESON FERREIRA BARBOSA               RUA JORGE FELIPE DA SILVA,25            CENTRO      59215000NOVA CRUZ      RN                               I42      00 000227
1020769242500015845430981859601300398000000000000000000036640403664040000000 40200000000000000000    000000501000000693920102200000000060000330000001N250922000000000000000202010220000000000000000000000000000000000000000100001738969444TALITA SAMARA PEDRO DA SILVA            RUA 6 DE JULHO,144                      SAO SEBASTIA59215000NOVA CRUZ      RN                               I42      00 000228
1020769242500015845430981859601300398000000000000000000037027503702758000000 40200000000000000000    000000501000000753810112200000000050000330000001N251022000000000000000171011220000000000000000000000000000000000000000100071115671456MARCOS FREITAS DO NASCIMENTO            RUA DA PALHA,0                          NOVA DESCOBE59215000NOVA CRUZ      RN                               I42      00 000229
1020769242500015845430981859601300398000000000000000000037043603704360000000 40200000000000000000    000000501000000809107112200000000060000330000001N251022000000000000000200711220000000000000000000000000000000000000000100011112316485SORAIMA GOUVEIA DA SILVA                RUA JOAQUIM MANOEL DE LIMA,14           SANTA LUZ   59215000NOVA CRUZ      RN                               I42      00 000230
1020769242500015845430981859601300398000000000000000000037052503705250000000 40200000000000000000    000000501000000832910112200000000050000330000001N251022000000000000000171011220000000000000000000000000000000000000000100007750742417ROSILENE FERREIRA DA SILVA              RUA DOUTOR LEMOS FILHO,216              ALTO DE SANT59215000NOVA CRUZ      RN                               I42      00 000231
1020769242500015845430981859601300398000000000000000000037118803711889000000 40200000000000000000    000000501000000991207112200000000050000330000001N251022000000000000000170711220000000000000000000000000000000000000000100094791325087LUCILA RODRIGUES DUARTE                 RUA JOSE ALEXANDRE DA SILVA,72          NOVA ESP    59215000NOVA CRUZ      RN                               I42      00 000232
1020769242500015845430981859601300398000000000000000000027115602711567000000 40200000000000000000    000000501000000649510092000000000055000330000001N250820000000000000000181009200000000000000000000000000000000000000000100046561218434FRANCISCO FERREIRA DA COSTA             RUA PROJETADA,00                        CAMPO NOVO  59215000NOVA CRUZ      RN                               I42      00 000233
1020769242500015845430981859601300398000000000000000000027520002752000000000 40200000000000000000    000000501000000649510102000000000055000330000001N250920000000000000000181010200000000000000000000000000000000000000000100046561218434FRANCISCO FERREIRA DA COSTA             RUA PROJETADA,00                        CAMPO NOVO  59215000NOVA CRUZ      RN                               I42      00 000234
1020769242500015845430981859601300398000000000000000000037049403704947000000 40200000000000000000    000000501000000825607112200000000050000330000001N251022000000000000000170711220000000000000000000000000000000000000000100001166008452GENI AVELINO DA SILVA                   RUA DA PALHA,0                          NOVA DESCOBE59215000NOVA CRUZ      RN                               I42      00 000235
1020769242500015845430981859601300398000000000000000000037071003707105000000 40200000000000000000    000000501000000880810112200000000050000330000001N251022000000000000000171011220000000000000000000000000000000000000000100070242870473FRANCISCO DE ASSIS XAVIER FRANCA        RUA SEVERINO AUGUSTO DE MORAIS,0        VISTA       59215000NOVA CRUZ      RN                               I42      00 000236
1020769242500015845430981859601300398000000000000000000037043103704319000000 40200000000000000000    000000501000000808207112200000000050000330000001N251022000000000000000170711220000000000000000000000000000000000000000100060756225191JAIRO VIDAL DE MELO                     RUA LUIZ ANTONIO BARBOSA,162            SAO JUDAS   59215000NOVA CRUZ      RN                               I42      00 000237
1020769242500015845430981859601300398000000000000000000037084603708462000000 40200000000000000000    000000501000000915407112200000000050000330000001N251022000000000000000170711220000000000000000000000000000000000000000100001052394450SIMONE GUEDES DA SILVA                  RUA JOAO PATRICIO DE OLIVEIRA,211       ALTO        59215000NOVA CRUZ      RN                               I42      00 000238
1020769242500015845430981859601300398000000000000000000037102903710297000000 40200000000000000000    000000501000000955610112200000000050000330000001N251022000000000000000171011220000000000000000000000000000000000000000100062915720444JOSEFA PAIXAO DIAS                      RUA PANTALEAO JUSTINO DE LIMA,26        PLANAL      59215000NOVA CRUZ      RN                               I42      00 000239
1020769242500015845430981859601300398000000000000000000036907803690784000000 40200000000000000000    000000501000000314707112200000000050000330000001N251022000000000000000170711220000000000000000000000000000000000000000100006389771428GILIANY DE MELO RAMOS                   RUA ALCEBIADES DA ROCHA,84              PLANALTO    59215000NOVA CRUZ      RN                               I42      00 000240
1020769242500015845430981859601300398000000000000000000036801503680150000000 40200000000000000000    000000501000001080920102200000000060000330000001N250922000000000000000202010220000000000000000000000000000000000000000100006522259427ADRIANA COSME DA SILVA                  RUA VEREADOR JOAO PIMENTA DE MELO,27    FR          59215000NOVA CRUZ      RN                               I42      00 000241
1020769242500015845430981859601300398000000000000000000036565303656535000000 40200000000000000000    000000501000000438020102200000000070000330000001N250922000000000000000232010220000000000000000000000000000000000000000100001681395452ARTHUR JORGE DUARTE GOMES               RUA MAURICIO HENRIQUE DE ARAUJO,53      ALTO        59215000NOVA CRUZ      RN                               I42      00 000242
1020769242500015845430981859601300398000000000000000000037147003714705000000 40200000000000000000    000000501000001045807112200000000050000330000001N251022000000000000000170711220000000000000000000000000000000000000000100002833022409LUIZ ANTONIO SEBASTIAO FABRICIO         RUA PROFESSOR MARIO PINOTTE,875         SAO SEB     59215000NOVA CRUZ      RN                               I42      00 000243
1020769242500015845430981859601300398000000000000000000037013703701379000000 40200000000000000000    000000501000000700720112200000000025000330000001N251022000000000000000082011220000000000000000000000000000000000000000100056713991491MARIA EUNICE DA SILVA                   RUA AVENIDA MARIA IRACEMA DA CRUZ,314   F           59215000NOVA CRUZ      RN                               I42      00 000244
1020769242500015845430981859601300398000000000000000000036952403695247000000 40200000000000000000    000000501000000493212112200000000060000330000001N251022000000000000000201211220000000000000000000000000000000000000000100009904183406CARLA DAYANNA RIBEIRO CALDAS            RUA SARGENTO PINHEIRO,247               FREI DAMIAO 59215000NOVA CRUZ      RN                               I42      00 000245
1020769242500015845430981859601300398000000000000000000037167403716740000000 40200000000000000000    000000501000001076610112200000000060000330000001N251022000000000000000201011220000000000000000000000000000000000000000100007242671744MANOEL LOURENCO DA SILVA                RUA MARIA LEDA MOUSINHO,745                         59215000NOVA CRUZ      RN                               I42      00 000246
1020769242500015845430981859601300398000000000000000000036659803665984000000 40200000000000000000    000000501000000763120102200000000050000330000001N250922000000000000000172010220000000000000000000000000000000000000000100005806679446MARIA SUELI DA SILVA                    RUA CARLOS ADSON BARBOSA,357            PLANALTO    59215000NOVA CRUZ      RN                               I42      00 000247
1020769242500015845430981859601300398000000000000000000036647603664767000000 40200000000000000000    000000501000000720120102200000000050000330000001N250922000000000000000172010220000000000000000000000000000000000000000100006804769465JOSE CIRILO FILHO                       RUA DEZOITO DE ABRIL,29                 SAO SEBASTIA59215000NOVA CRUZ      RN                               I42      00 000248
1020769242500015845430981859601300398000000000000000000037105903710599000000 40200000000000000000    000000501000000962710112200000000060000330000001N251022000000000000000201011220000000000000000000000000000000000000000100001100698469GILCELIA JULIAO DA SILVA                RUA JOSE ALEXANDRINO SILVA,114          CIDADE D    59215000NOVA CRUZ      RN                               I42      00 000249
