02RETORNO01COBRANCA       45430981859601300398INTELNET SERVICO DE MULTIMIDIA033SANTANDER      0401220000000000000000                                                                                                                                                                                                                                                                                   000000001
